{
  "transactions": [
    {
      "hash": "0xe66608d7c670e1b65a1ec383212903c1af371b2e7bbcb233aba6a9094fd03f00",
      "transactionType": "CREATE",
      "contractName": "UniswapFuelSwap",
      "contractAddress": "0x547be2f85f371f85ffb7f5ba1a972ead88d7db42",
      "function": null,
      "arguments": [
        "0xE03A1074c86CFeDd5C142C4F04F1a1536e203543",
        "0x35d0186d1FD53b72996475D965C5Ed171D52b986",
        "0xfFf9976782d46CC05630D1f6eBAb18b2324d6B14"
      ],
      "transaction": {
        "from": "0xfcc2238319ac360e985f1736abb3df6251daf6f5",
        "gas": "0x38d0d7",
        "value": "0x0",
        "input": "0x60e0604052346100d65761001a6100146101b7565b916103f1565b6100226100db565b6131f861066b82396080518181816105b30152818161113801528181611b3001528181611bfa01528181611e0101528181612a1001528181612a9701528181612acc01528181612c3b01528181612d0d01528181612d9401528181612dc901528181612e290152612f48015260a051818181610343015281816111d801528181611e300152612692015260c05181818160f3015281816125f201528181612bc201528181612e570152612ecf01526131f890f35b6100e1565b60405190565b5f80fd5b601f801991011690565b634e487b7160e01b5f52604160045260245ffd5b9061010d906100e5565b810190811060018060401b0382111761012557604052565b6100ef565b9061013d6101366100db565b9283610103565b565b5f80fd5b60018060a01b031690565b61015790610143565b90565b6101638161014e565b0361016a57565b5f80fd5b9050519061017b8261015a565b565b90916060828403126101b2576101af610198845f850161016e565b936101a6816020860161016e565b9360400161016e565b90565b61013f565b6101d5613863803803806101ca8161012a565b92833981019061017d565b909192565b90565b90565b6101f46101ef6101f9926101da565b6101dd565b610143565b90565b610205906101e0565b90565b60209181520190565b60207f7200000000000000000000000000000000000000000000000000000000000000917f556e69737761704675656c537761703a207a65726f20706f6f6c4d616e6167655f8201520152565b61026b6021604092610208565b61027481610211565b0190565b61028d9060208101905f81830391015261025e565b90565b1561029757565b61029f6100db565b62461bcd60e51b8152806102b560048201610278565b0390fd5b5f7f556e69737761704675656c537761703a207a65726f206665654a756963650000910152565b6102ed601e602092610208565b6102f6816102b9565b0190565b61030f9060208101905f8183039101526102e0565b90565b1561031957565b6103216100db565b62461bcd60e51b815280610337600482016102fa565b0390fd5b5f7f556e69737761704675656c537761703a207a65726f2077657468000000000000910152565b61036f601a602092610208565b6103788161033b565b0190565b6103919060208101905f818303910152610362565b90565b1561039b57565b6103a36100db565b62461bcd60e51b8152806103b96004820161037c565b0390fd5b6103d16103cc6103d692610143565b6101dd565b610143565b90565b6103e2906103bd565b90565b6103ee906103d9565b90565b610472906103fe3361047d565b6104238161041c6104166104115f6101fc565b61014e565b9161014e565b1415610290565b6104488361044161043b6104365f6101fc565b61014e565b9161014e565b1415610312565b61046d8461046661046061045b5f6101fc565b61014e565b9161014e565b1415610394565b6103e5565b60805260a05260c052565b610486906104aa565b565b6104919061014e565b9052565b91906104a8905f60208501940190610488565b565b806104c56104bf6104ba5f6101fc565b61014e565b9161014e565b146104d5576104d39061057f565b565b6104f86104e15f6101fc565b5f918291631e4fbdf760e01b835260048301610495565b0390fd5b1b90565b9190600861052091029161051a60018060a01b03846104fc565b926104fc565b9181191691161790565b610533906103bd565b90565b61053f9061052a565b90565b90565b919061055b61055661056393610536565b610542565b908354610500565b9055565b5f90565b61057d91610577610567565b91610545565b565b6105939061058e5f600161056b565b61060b565b565b5f1c90565b60018060a01b031690565b6105b16105b691610595565b61059a565b90565b6105c390546105a5565b90565b5f1b90565b906105dc60018060a01b03916105c6565b9181191691161790565b906105fb6105f661060292610536565b610542565b82546105cb565b9055565b5f0190565b6106145f6105b9565b61061e825f6105e6565b9061065261064c7f8be0079c531659141344cd1fd0a4f28419497f9722a3daafe3b4186f6b6457e093610536565b91610536565b9161065b6100db565b8061066581610606565b0390a356fe60806040526004361015610015575b366106e957005b61001f5f356100ce565b80633fc8cef3146100c957806365c437f9146100c45780636a327951146100bf578063715018a6146100ba57806379ba5097146100b55780638da5cb5b146100b057806391dd7346146100ab578063b8dc491b146100a6578063dc4c90d3146100a1578063e30c39781461009c5763f2fde38b0361000e576106b6565b610663565b61062e565b61057d565b61051a565b610405565b6103d2565b61039f565b610365565b610305565b61014e565b60e01c90565b60405190565b5f80fd5b5f80fd5b5f9103126100ec57565b6100de565b7f000000000000000000000000000000000000000000000000000000000000000090565b60018060a01b031690565b61012990610115565b90565b61013590610120565b9052565b919061014c905f6020850194019061012c565b565b3461017e5761015e3660046100e2565b61017a6101696100f1565b6101716100d4565b91829182610139565b0390f35b6100da565b5f80fd5b61019081610120565b0361019757565b5f80fd5b905035906101a882610187565b565b90565b6101b6816101aa565b036101bd57565b5f80fd5b905035906101ce826101ad565b565b5f80fd5b5f80fd5b5f80fd5b909182601f830112156102165781359167ffffffffffffffff8311610211576020019260a0830284011161020c57565b6101d8565b6101d4565b6101d0565b909182601f830112156102555781359167ffffffffffffffff831161025057602001926020830284011161024b57565b6101d8565b6101d4565b6101d0565b909160a0828403126102de57610272835f840161019b565b9261028081602085016101c1565b9261028e82604083016101c1565b92606082013567ffffffffffffffff81116102d957836102af9184016101dc565b929093608082013567ffffffffffffffff81116102d4576102d0920161021b565b9091565b610183565b610183565b6100de565b6102ec906101aa565b9052565b9190610303905f602085019401906102e3565b565b3461033c5761033861032761031b36600461025a565b9594909493919361127d565b61032f6100d4565b918291826102f0565b0390f35b6100da565b7f000000000000000000000000000000000000000000000000000000000000000090565b34610395576103753660046100e2565b610391610380610341565b6103886100d4565b91829182610139565b0390f35b6100da565b5f0190565b346103cd576103af3660046100e2565b6103b76112e4565b6103bf6100d4565b806103c98161039a565b0390f35b6100da565b34610400576103e23660046100e2565b6103ea6112ee565b6103f26100d4565b806103fc8161039a565b0390f35b6100da565b34610435576104153660046100e2565b610431610420611374565b6104286100d4565b91829182610139565b0390f35b6100da565b909182601f830112156104745781359167ffffffffffffffff831161046f57602001926001830284011161046a57565b6101d8565b6101d4565b6101d0565b906020828203126104aa575f82013567ffffffffffffffff81116104a5576104a1920161043a565b9091565b610183565b6100de565b5190565b60209181520190565b90825f9392825e0152565b601f801991011690565b6104f06104f96020936104fe936104e7816104af565b938480936104b3565b958691016104bc565b6104c7565b0190565b6105179160208201915f8184039101526104d1565b90565b3461054b57610547610536610530366004610479565b90611b10565b61053e6100d4565b91829182610502565b0390f35b6100da565b9190604083820312610578578061056c610575925f860161019b565b9360200161019b565b90565b6100de565b346105ac57610596610590366004610550565b90612247565b61059e6100d4565b806105a88161039a565b0390f35b6100da565b7f000000000000000000000000000000000000000000000000000000000000000090565b90565b6105ec6105e76105f192610115565b6105d5565b610115565b90565b6105fd906105d8565b90565b610609906105f4565b90565b61061590610600565b9052565b919061062c905f6020850194019061060c565b565b3461065e5761063e3660046100e2565b61065a6106496105b1565b6106516100d4565b91829182610619565b0390f35b6100da565b34610693576106733660046100e2565b61068f61067e612253565b6106866100d4565b91829182610139565b0390f35b6100da565b906020828203126106b1576106ae915f0161019b565b90565b6100de565b346106e4576106ce6106c9366004610698565b61231e565b6106d66100d4565b806106e08161039a565b0390f35b6100da565b5f80fd5b5f90565b60a01c90565b60ff1690565b61070961070e916106f1565b6106f7565b90565b61071b90546106fd565b90565b151590565b60209181520190565b5f7f556e69737761704675656c537761703a207265656e7472616e74000000000000910152565b610760601a602092610723565b6107698161072c565b0190565b6107829060208101905f818303910152610753565b90565b1561078c57565b6107946100d4565b62461bcd60e51b8152806107aa6004820161076d565b0390fd5b60a01b90565b906107c360ff60a01b916107ae565b9181191691161790565b6107d69061071e565b90565b90565b906107f16107ec6107f8926107cd565b6107d9565b82546107b4565b9055565b906108329796959493929161082261081d6108176001610711565b1561071e565b610785565b61082d6001806107dc565b61102a565b9061083e5f60016107dc565b565b5090565b90565b61085b61085661086092610844565b6105d5565b6101aa565b90565b5f7f556e69737761704675656c537761703a20656d70747920706174680000000000910152565b610897601b602092610723565b6108a081610863565b0190565b6108b99060208101905f81830391015261088a565b90565b156108c357565b6108cb6100d4565b62461bcd60e51b8152806108e1600482016108a4565b0390fd5b5090565b60207f6d69736d61746368000000000000000000000000000000000000000000000000917f556e69737761704675656c537761703a20706174682f646972656374696f6e205f8201520152565b6109436028604092610723565b61094c816108e9565b0190565b6109659060208101905f818303910152610936565b90565b1561096f57565b6109776100d4565b62461bcd60e51b81528061098d60048201610950565b0390fd5b5f7f556e69737761704675656c537761703a207a65726f20696e7075740000000000910152565b6109c5601b602092610723565b6109ce81610991565b0190565b6109e79060208101905f8183039101526109b8565b90565b156109f157565b6109f96100d4565b62461bcd60e51b815280610a0f600482016109d2565b0390fd5b90565b610a2a610a25610a2f92610a13565b6105d5565b6101aa565b90565b5f7f556e69737761704675656c537761703a20696e707574206f766572666c6f7700910152565b610a66601f602092610723565b610a6f81610a32565b0190565b610a889060208101905f818303910152610a59565b90565b15610a9257565b610a9a6100d4565b62461bcd60e51b815280610ab060048201610a73565b0390fd5b610abd906105d8565b90565b610ac990610ab4565b90565b610ad5906105f4565b90565b60209181520190565b90565b610aed81610120565b03610af457565b5f80fd5b90503590610b0582610ae4565b565b50610b16906020810190610af8565b90565b610b22906105f4565b90565b610b2e90610b19565b9052565b62ffffff1690565b610b4381610b32565b03610b4a57565b5f80fd5b90503590610b5b82610b3a565b565b50610b6c906020810190610b4e565b90565b610b7890610b32565b9052565b60020b90565b610b8b81610b7c565b03610b9257565b5f80fd5b90503590610ba382610b82565b565b50610bb4906020810190610b96565b90565b610bc090610b7c565b9052565b610bcd90610120565b90565b610bd981610bc4565b03610be057565b5f80fd5b90503590610bf182610bd0565b565b50610c02906020810190610be4565b90565b610c0e906105f4565b90565b610c1a90610c05565b9052565b906080610c97610c9f93610c40610c375f830183610b07565b5f860190610b25565b610c5a610c506020830183610b07565b6020860190610b25565b610c74610c6a6040830183610b5d565b6040860190610b6f565b610c8e610c846060830183610ba5565b6060860190610bb7565b82810190610bf3565b910190610c11565b565b90610cae8160a093610c1e565b0190565b5090565b60a00190565b91610cca82610cd092610ad8565b92610ae1565b90815f905b828210610ce3575050505090565b90919293610d05610cff600192610cfa8886610cb2565b610ca1565b95610cb6565b920190929192610cd5565b60209181520190565b90565b610d259061071e565b9052565b90610d3681602093610d1c565b0190565b610d438161071e565b03610d4a57565b5f80fd5b90503590610d5b82610d3a565b565b50610d6c906020810190610d4e565b90565b60200190565b91610d8382610d8992610d10565b92610d19565b90815f905b828210610d9c575050505090565b90919293610dbe610db8600192610db38886610d5d565b610d29565b95610d6f565b920190929192610d8e565b949293610e0e9694610df3610e0094610de960808a01955f8b019061012c565b60208901906102e3565b8683036040880152610cbc565b926060818503910152610d75565b90565b634e487b7160e01b5f52604160045260245ffd5b90610e2f906104c7565b810190811067ffffffffffffffff821117610e4957604052565b610e11565b5f80fd5b60e01b90565b5f80fd5b90610e6f610e686100d4565b9283610e25565b565b67ffffffffffffffff8111610e8f57610e8b6020916104c7565b0190565b610e11565b90929192610ea9610ea482610e71565b610e5c565b93818552602085019082840111610ec557610ec3926104bc565b565b610e58565b9080601f83011215610ee857816020610ee593519101610e94565b90565b6101d0565b90602082820312610f1d575f82015167ffffffffffffffff8111610f1857610f159201610eca565b90565b610183565b6100de565b610f2a6100d4565b3d5f823e3d90fd5b90505190610f3f826101ad565b565b90602082820312610f5a57610f57915f01610f32565b90565b6100de565b60207f7470757400000000000000000000000000000000000000000000000000000000917f556e69737761704675656c537761703a20696e73756666696369656e74206f755f8201520152565b610fb96024604092610723565b610fc281610f5f565b0190565b610fdb9060208101905f818303910152610fac565b90565b15610fe557565b610fed6100d4565b62461bcd60e51b81528061100360048201610fc6565b0390fd5b91602061102892949361102160408201965f8301906102e3565b01906102e3565b565b956111246111849593965f959a9961113394995061106461104c878490610840565b61105e6110588a610847565b916101aa565b116108bc565b611094611072878490610840565b61108e6110886110838886906108e5565b6101aa565b916101aa565b14610968565b6110b0896110aa6110a48a610847565b916101aa565b116109ea565b6110db896110d46110ce6110c960018060ff1b03610a16565b6101aa565b916101aa565b1115610a8b565b6110ea8a878487918593612565565b6111086110f68b610ac0565b3361110030610acc565b908c92612779565b89938996929091926111186100d4565b97889660208801610dc9565b60208201810382520382610e25565b61115c7f0000000000000000000000000000000000000000000000000000000000000000610600565b611179836348c8949161116d6100d4565b96879586948593610e52565b835260048301610502565b03925af1908115611278576111d0916111b5915f91611256575b5060206111aa826104af565b818301019101610f41565b946111c96111c387926101aa565b916101aa565b1015610fde565b6112046111fc7f0000000000000000000000000000000000000000000000000000000000000000610ac0565b3386916127ec565b339190918461123c6112367fdd36740e2a012d93061a0d99eaa9107860955de4e90027d3cf465a055026c40793610b19565b93610b19565b936112516112486100d4565b92839283611007565b0390a3565b61127291503d805f833e61126a8183610e25565b810190610eed565b5f61119e565b610f22565b9061129496959493929161128f6106ed565b6107fc565b90565b61129f61283a565b6112a76112d1565b565b6112bd6112b86112c292610844565b6105d5565b610115565b90565b6112ce906112a9565b90565b6112e26112dd5f6112c5565b6128ec565b565b6112ec611297565b565b6112f6612902565b6112fe612253565b61131061130a83610120565b91610120565b036113205761131e906128ec565b565b61133b905f91829163118cdaa760e01b835260048301610139565b0390fd5b5f90565b5f1c90565b60018060a01b031690565b61135f61136491611343565b611348565b90565b6113719054611353565b90565b61137c61133f565b506113865f611367565b90565b606090565b60207f6c6c6261636b0000000000000000000000000000000000000000000000000000917f556e69737761704675656c537761703a20756e617574686f72697a65642063615f8201520152565b6113e86026604092610723565b6113f18161138e565b0190565b61140a9060208101905f8183039101526113db565b90565b1561141457565b61141c6100d4565b62461bcd60e51b815280611432600482016113f5565b0390fd5b61143f90610115565b90565b61144b81611436565b0361145257565b5f80fd5b9050359061146382611442565b565b67ffffffffffffffff811161147d5760208091020190565b610e11565b5f80fd5b919060a0838203126114f6576114ef906114a060a0610e5c565b936114ad825f8301610af8565b5f8601526114be8260208301610af8565b60208601526114d08260408301610b4e565b60408601526114e28260608301610b96565b6060860152608001610be4565b6080830152565b611482565b9092919261151061150b82611465565b610e5c565b9381855260a060208601920283019281841161154f57915b8383106115355750505050565b602060a0916115448486611486565b815201920191611528565b6101d8565b9080601f830112156115725781602061156f933591016114fb565b90565b6101d0565b67ffffffffffffffff811161158f5760208091020190565b610e11565b909291926115a96115a482611577565b610e5c565b93818552602080860192028301928184116115e657915b8383106115cd5750505050565b602080916115db8486610d4e565b8152019201916115c0565b6101d8565b9080601f830112156116095781602061160693359101611594565b90565b6101d0565b9060808282031261168057611625815f8401611456565b9261163382602085016101c1565b92604081013567ffffffffffffffff811161167b5783611654918301611554565b92606082013567ffffffffffffffff81116116765761167392016115eb565b90565b610183565b610183565b6100de565b61168e906105f4565b90565b5190565b90565b6116ac6116a76116b192611695565b6105d5565b6101aa565b90565b634e487b7160e01b5f52601160045260245ffd5b6116d76116dd919392936101aa565b926101aa565b82039182116116e857565b6116b4565b634e487b7160e01b5f52603260045260245ffd5b9061170b82611691565b81101561171c576020809102010190565b6116ed565b600161172d91016101aa565b90565b5190565b9061173e82611730565b81101561174f576020809102010190565b6116ed565b61175e905161071e565b90565b61177561177061177a926101aa565b6105d5565b610a13565b90565b61178690610a13565b600160ff1b8114611796575f0390565b6116b4565b90565b6117b26117ad6117b79261179b565b6105d5565b610115565b90565b6117d773fffd8963efd1fc6a506488495d951d5263988d2661179e565b90565b6117ee6117e96117f392611695565b6105d5565b610115565b90565b61180261180891610115565b91610115565b90039060018060a01b03821161181a57565b6116b4565b90565b61183661183161183b9261181f565b6105d5565b610115565b90565b61184c6401000276a3611822565b90565b61185b61186191610115565b91610115565b019060018060a01b03821161187257565b6116b4565b6118816060610e5c565b90565b9061188e9061071e565b9052565b9061189c90610a13565b9052565b906118aa90610115565b9052565b6118b781610a13565b036118be57565b5f80fd5b905051906118cf826118ae565b565b906020828203126118ea576118e7915f016118c2565b90565b6100de565b90608080611947936119075f8201515f860190610b25565b61191960208201516020860190610b25565b61192b60408201516040860190610b6f565b61193d60608201516060860190610bb7565b0151910190610c11565b565b61195290610a13565b9052565b61195f90610115565b9052565b906040806119979361197b5f8201515f860190610d1c565b61198d60208201516020860190611949565b0151910190611956565b565b6119a45f80926104b3565b0190565b6119cb6119d9936119c16101208401945f8501906118ef565b60a0830190611963565b610100818303910152611999565b90565b600f0b90565b6119f66119f16119fb92610844565b6105d5565b6119dc565b90565b60207f7470757400000000000000000000000000000000000000000000000000000000917f556e69737761704675656c537761703a206e6f6e2d706f736974697665206f755f8201520152565b611a586024604092610723565b611a61816119fe565b0190565b611a7a9060208101905f818303910152611a4b565b90565b15611a8457565b611a8c6100d4565b62461bcd60e51b815280611aa260048201611a65565b0390fd5b611aba611ab5611abf926119dc565b6105d5565b610a13565b90565b5f910312611acc57565b6100de565b611ada90610b19565b9052565b604090611b07611b0e9496959396611afd60608401985f850190611ad1565b602083019061012c565b01906102e3565b565b611b7791611b6e91611b20611389565b50611b6533611b5f611b59611b547f0000000000000000000000000000000000000000000000000000000000000000610600565b610120565b91610120565b1461140d565b9081019061160e565b93909192611685565b9190611ba8611ba282611b9c611b8c85611691565b611b966001611698565b906116c8565b90611701565b51612920565b82611bb16106ed565b611bba5f610847565b945b85611bd7611bd1611bcc88611691565b6101aa565b916101aa565b1015611de8578380611db3575b611daa575b60208689611cc85f89611cb1611c1e7f0000000000000000000000000000000000000000000000000000000000000000610600565b94611c66611c61611c3563f3cd914c958a90611701565b5198611c5b611c56611c50611c4b878590611734565b611754565b9d611761565b61177d565b93611734565b611754565b8414611d8657611ca8611c8a611c7a61183e565b611c8460016117da565b9061184f565b915b611ca0611c97611877565b9b878d01611884565b898b01611892565b604089016118a0565b611cd3611cbc6100d4565b97889687958694610e52565b8452600484016119a8565b03925af18015611d8157611d34611d3991611d3f935f91611d53575b50611d03611cfe8c8b90611734565b611754565b5f14611d4557611d12906129ad565b5b611d2f81611d29611d235f6119e2565b916119dc565b13611a7d565b611aa6565b610a16565b95611721565b94611bbc565b611d4e9061299e565b611d13565b611d74915060203d8111611d7a575b611d6c8183610e25565b8101906118d1565b5f611cef565b503d611d62565b610f22565b611ca8611da4611d946117ba565b611d9e60016117da565b906117f6565b91611c8c565b80915090611be9565b5085611de2611ddc611dd7611dc789611691565b611dd16001611698565b906116c8565b6101aa565b916101aa565b14611be4565b965091909350611dfc9493909192936129f5565b611e257f0000000000000000000000000000000000000000000000000000000000000000610600565b90630b0d9c09611e547f0000000000000000000000000000000000000000000000000000000000000000610b19565b611e5d30610acc565b938392813b15611f00575f611e8591611e908296611e796100d4565b998a9788968795610e52565b855260048501611ade565b03925af1908115611efb57611ebd92611ecc92611ecf575b50611eb16100d4565b928391602083016102f0565b60208201810382520382610e25565b90565b611eee905f3d8111611ef4575b611ee68183610e25565b810190611ac2565b5f611ea8565b503d611edc565b610f22565b610e4e565b90611f1791611f1261283a565b6120c7565b565b5f7f556e69737761704675656c537761703a207a65726f20726563697069656e7400910152565b611f4d601f602092610723565b611f5681611f19565b0190565b611f6f9060208101905f818303910152611f40565b90565b15611f7957565b611f816100d4565b62461bcd60e51b815280611f9760048201611f5a565b0390fd5b611fa4906105f4565b90565b611fb0906105d8565b90565b611fbc90611fa7565b90565b905090565b611fcf5f8092611fbf565b0190565b611fdc90611fc4565b90565b90611ff1611fec83610e71565b610e5c565b918252565b3d5f14612011576120063d611fdf565b903d5f602084013e5b565b612019611389565b9061200f565b60207f696c656400000000000000000000000000000000000000000000000000000000917f556e69737761704675656c537761703a20455448207472616e736665722066615f8201520152565b6120796024604092610723565b6120828161201f565b0190565b61209b9060208101905f81830391015261206c565b90565b156120a557565b6120ad6100d4565b62461bcd60e51b8152806120c360048201612086565b0390fd5b6120ec826120e56120df6120da5f6112c5565b610120565b91610120565b1415611f72565b806121076121016120fc5f6112c5565b610120565b91610120565b145f1461217b575061211830610acc565b318061212c6121265f610847565b916101aa565b11612137575b50505b565b5f809161214e61214961217495611fb3565b611685565b906121576100d4565b908161216281611fd3565b03925af161216e611ff6565b5061209e565b5f80612132565b906121c4602061219261218d85610ac0565b611f9b565b6370a08231906121b96121a430610acc565b926121ad6100d4565b95869485938493610e52565b835260048301610139565b03915afa908115612242575f91612214575b50806121ea6121e45f610847565b916101aa565b116121f8575b505050612135565b61220461220c93610ac0565b9190916127ec565b5f80806121f0565b612235915060203d811161223b575b61222d8183610e25565b810190610f41565b5f6121d6565b503d612223565b610f22565b9061225191611f05565b565b61225b61133f565b506122666001611367565b90565b61227a9061227561283a565b6122bf565b565b5f1b90565b9061229260018060a01b039161227c565b9181191691161790565b90565b906122b46122af6122bb92610b19565b61229c565b8254612281565b9055565b6122ca81600161229f565b6122d2611374565b906123066123007f38d16b8cac22d99fc7c124b9cd0de2d3fa1faef420bfe791d8c362d765e2270093610b19565b91610b19565b9161230f6100d4565b806123198161039a565b0390a3565b61232790612269565b565b91908110156123395760a0020190565b6116ed565b919081101561234e576020020190565b6116ed565b3561235d81610d3a565b90565b3561236a81610ae4565b90565b60207f206d69736d617463680000000000000000000000000000000000000000000000917f556e69737761704675656c537761703a20666972737420686f7020696e7075745f8201520152565b6123c76029604092610723565b6123d08161236d565b0190565b6123e99060208101905f8183039101526123ba565b90565b156123f357565b6123fb6100d4565b62461bcd60e51b815280612411600482016123d4565b0390fd5b60207f717569726573205745544820696e707574000000000000000000000000000000917f556e69737761704675656c537761703a206e617469766520726f7574652072655f8201520152565b61246f6031604092610723565b61247881612415565b0190565b6124919060208101905f818303910152612462565b90565b1561249b57565b6124a36100d4565b62461bcd60e51b8152806124b96004820161247c565b0390fd5b60207f7574707574206665654a75696365000000000000000000000000000000000000917f556e69737761704675656c537761703a206c61737420686f70206d757374206f5f8201520152565b612517602e604092610723565b612520816124bd565b0190565b6125399060208101905f81830391015261250a565b90565b1561254357565b61254b6100d4565b62461bcd60e51b81528061256160048201612524565b0390fd5b9361266a9161266461265461266f956126c29861258c85836125865f610847565b91612329565b6125a86125a38b8961259d5f610847565b9161233e565b612353565b5f146126fd576125bc5f6125c19201612360565b610b19565b5b90816125de6125d86125d35f6112c5565b610120565b91610120565b145f146126dc57612622915061261c6126167f0000000000000000000000000000000000000000000000000000000000000000610120565b91610120565b14612494565b5b61264c8482612646612636888690610840565b6126406001611698565b906116c8565b91612329565b979493610840565b61265e6001611698565b906116c8565b9161233e565b612353565b5f146126c45761268460206126899201612360565b610b19565b5b6126bc6126b67f0000000000000000000000000000000000000000000000000000000000000000610120565b91610120565b1461253c565b565b6126d25f6126d79201612360565b610b19565b61268a565b6126f26126ec6126f89392610120565b91610120565b146123ec565b612623565b61270c60206127119201612360565b610b19565b6125c2565b63ffffffff1690565b63ffffffff60e01b1690565b61273f61273a61274492612716565b610e52565b61271f565b90565b604090612770612777949695939661276660608401985f85019061012c565b602083019061012c565b01906102e3565b565b6004926127b36127c795936127c2939461279a6323b872dd9294919261272b565b936127a36100d4565b9788956020870190815201612747565b60208201810382520383610e25565b6130af565b565b9160206127ea9294936127e360408201965f83019061012c565b01906102e3565b565b90612833612838936128246004949361280b63a9059cbb91939161272b565b926128146100d4565b96879460208601908152016127c9565b60208201810382520383610e25565b6130af565b565b612842611374565b61285b612855612850612902565b610120565b91610120565b0361286257565b61288461286d612902565b5f91829163118cdaa760e01b835260048301610139565b0390fd5b1b90565b919060086128ac9102916128a660018060a01b0384612888565b92612888565b9181191691161790565b91906128cc6128c76128d493610b19565b61229c565b90835461288c565b9055565b6128ea916128e461133f565b916128b6565b565b612900906128fb5f60016128d8565b613163565b565b61290a61133f565b503390565b5f90565b61291d9051610120565b90565b61292861290f565b5061293c6129375f8301612913565b610b19565b61295661295061294b5f6112c5565b610120565b91610120565b14908115612963575b5090565b612979915060206129749101612913565b610b19565b61299361298d6129885f6112c5565b610120565b91610120565b145f61295f565b5f90565b6129a661299a565b5060801d90565b6129b561299a565b50600f0b90565b91906129cf905f60208501940190611ad1565b565b6129da906105d8565b90565b6129e6906129d1565b90565b6129f2906105f4565b90565b93909291612a03901561071e565b5f14612b91575050612a347f0000000000000000000000000000000000000000000000000000000000000000610600565b9163a5841194612a4382610b19565b843b15612b8c57612a7394612a685f8094612a5c6100d4565b98899586948593610e52565b8352600483016129bc565b03925af1908115612b8757612ac293612a9192612b5b575b50610ac0565b90612abb7f0000000000000000000000000000000000000000000000000000000000000000610600565b90916127ec565b612b066020612af07f0000000000000000000000000000000000000000000000000000000000000000610600565b6311da60b490612afe6100d4565b938492610e52565b8252815f81612b176004820161039a565b03925af18015612b5657612b2a575b505b565b612b4a9060203d8111612b4f575b612b428183610e25565b810190610f41565b612b26565b503d612b38565b610f22565b612b7a905f3d8111612b80575b612b728183610e25565b810190611ac2565b5f612a8b565b503d612b68565b610f22565b610e4e565b612b9e9093919293611691565b612bb1612bab6001611698565b916101aa565b145f14612d06575050612beb612be67f00000000000000000000000000000000000000000000000000000000000000006129dd565b6129e9565b632e1a7d4d82823b15612d0157612c2192612c165f8094612c0a6100d4565b96879586948593610e52565b8352600483016102f0565b03925af18015612cfc57612cd0575b506020612c7a612c5f7f0000000000000000000000000000000000000000000000000000000000000000610600565b926311da60b4909390612c706100d4565b9485938492610e52565b825281612c896004820161039a565b03925af18015612ccb57612c9f575b505b612b28565b612cbf9060203d8111612cc4575b612cb78183610e25565b810190610f41565b612c98565b503d612cad565b610f22565b612cef905f3d8111612cf5575b612ce78183610e25565b810190611ac2565b5f612c30565b503d612cdd565b610f22565b610e4e565b9091612d317f0000000000000000000000000000000000000000000000000000000000000000610600565b9163a5841194612d4082610b19565b843b156130aa57612d7094612d655f8094612d596100d4565b98899586948593610e52565b8352600483016129bc565b03925af19081156130a557612dbf93612d8e92613079575b50610ac0565b90612db87f0000000000000000000000000000000000000000000000000000000000000000610600565b90916127ec565b612e036020612ded7f0000000000000000000000000000000000000000000000000000000000000000610600565b6311da60b490612dfb6100d4565b938492610e52565b8252815f81612e146004820161039a565b03925af1801561307457613048575b50612e4d7f0000000000000000000000000000000000000000000000000000000000000000610600565b630b0d9c09612e7b7f0000000000000000000000000000000000000000000000000000000000000000610b19565b612e8430610acc565b928492813b15613043575f612eac91612eb78296612ea06100d4565b98899788968795610e52565b855260048501611ade565b03925af1801561303e57613012575b50612ef8612ef37f00000000000000000000000000000000000000000000000000000000000000006129dd565b6129e9565b632e1a7d4d82823b1561300d57612f2e92612f235f8094612f176100d4565b96879586948593610e52565b8352600483016102f0565b03925af1801561300857612fdc575b506020612f87612f6c7f0000000000000000000000000000000000000000000000000000000000000000610600565b926311da60b4909390612f7d6100d4565b9485938492610e52565b825281612f966004820161039a565b03925af18015612fd757612fab575b50612c9a565b612fcb9060203d8111612fd0575b612fc38183610e25565b810190610f41565b612fa5565b503d612fb9565b610f22565b612ffb905f3d8111613001575b612ff38183610e25565b810190611ac2565b5f612f3d565b503d612fe9565b610f22565b610e4e565b613031905f3d8111613037575b6130298183610e25565b810190611ac2565b5f612ec6565b503d61301f565b610f22565b610e4e565b6130689060203d811161306d575b6130608183610e25565b810190610f41565b612e23565b503d613056565b610f22565b613098905f3d811161309e575b6130908183610e25565b810190611ac2565b5f612d88565b503d613086565b610f22565b610e4e565b905f6020916130bc6106ed565b506130c56106ed565b50828151910182855af115613158573d5f51906130ea6130e45f610847565b916101aa565b145f1461313e57506130fb81611f9b565b3b61310e6131085f610847565b916101aa565b145b6131175750565b61312361313a91611f9b565b5f918291635274afe760e01b835260048301610139565b0390fd5b61315161314b6001611698565b916101aa565b1415613110565b6040513d5f823e3d90fd5b61316c5f611367565b613176825f61229f565b906131aa6131a47f8be0079c531659141344cd1fd0a4f28419497f9722a3daafe3b4186f6b6457e093610b19565b91610b19565b916131b36100d4565b806131bd8161039a565b0390a356fea2646970667358221220ca255a712e37dfbf3a283ae0ddb1ab53cbd7c8b908c753a568ba6748efd8cc8e64736f6c634300081c0033000000000000000000000000e03a1074c86cfedd5c142c4f04f1a1536e20354300000000000000000000000035d0186d1fd53b72996475d965c5ed171d52b986000000000000000000000000fff9976782d46cc05630d1f6ebab18b2324d6b14",
        "nonce": "0x83",
        "chainId": "0xaa36a7"
      },
      "additionalContracts": [],
      "isFixedGasLimit": false
    },
    {
      "hash": "0x39e527ecd9eeb04b3a258b94215b213a4f1434915109ab87aef530ca19a2c440",
      "transactionType": "CREATE",
      "contractName": "PoolSetupHelper",
      "contractAddress": "0xbded1de43ec40d9f62c43d94d3caae4b6c03c30a",
      "function": null,
      "arguments": [
        "0xE03A1074c86CFeDd5C142C4F04F1a1536e203543",
        "0xED9c5557d2E0abCc7c7FCA958eE4292199413494",
        "0x35d0186d1FD53b72996475D965C5Ed171D52b986"
      ],
      "transaction": {
        "from": "0xfcc2238319ac360e985f1736abb3df6251daf6f5",
        "gas": "0x2198b5",
        "value": "0x0",
        "input": "0x610100604052346100da5761001b6100156101bb565b91610215565b6100236100df565b611d9e61022e823960805181818161036101528181610d9c01528181610e1301528181611371015281816113c1015281816114ec015281816115bd015281816116e00152818161177a015281816118170152818161184c0152818161196a01528181611a0401528181611a9f0152611ad4015260a0518181816103080152610cc6015260c0518161028d015260e05181818161053501528181610746015281816107cd015281816108a20152610c6b0152611d9e90f35b6100e5565b60405190565b5f80fd5b601f801991011690565b634e487b7160e01b5f52604160045260245ffd5b90610111906100e9565b810190811060018060401b0382111761012957604052565b6100f3565b9061014161013a6100df565b9283610107565b565b5f80fd5b60018060a01b031690565b61015b90610147565b90565b61016781610152565b0361016e57565b5f80fd5b9050519061017f8261015e565b565b90916060828403126101b6576101b361019c845f8501610172565b936101aa8160208601610172565b93604001610172565b90565b610143565b6101d9611fcc803803806101ce8161012e565b928339810190610181565b909192565b90565b6101f56101f06101fa92610147565b6101de565b610147565b90565b610206906101e1565b90565b610212906101fd565b90565b61021e90610209565b60805260a05260c0523360e05256fe60806040526004361015610015575b3661058c57005b61001f5f3561008e565b806301681a62146100895780632ba409a1146100845780636a3279511461007f578063714631631461007a5780638970cdff1461007557806391dd7346146100705763d5f394880361000e57610557565b6104fd565b6103dc565b61032a565b6102d1565b61024c565b610103565b60e01c90565b60405190565b5f80fd5b5f80fd5b5f80fd5b60018060a01b031690565b6100ba906100a6565b90565b6100c6816100b1565b036100cd57565b5f80fd5b905035906100de826100bd565b565b906020828203126100f9576100f6915f016100d1565b90565b61009e565b5f0190565b346101315761011b6101163660046100e0565b61073a565b610123610094565b8061012d816100fe565b0390f35b61009a565b90565b61014281610136565b0361014957565b5f80fd5b9050359061015a82610139565b565b5f80fd5b908160a091031261016e5790565b61015c565b61017c816100a6565b0361018357565b5f80fd5b9050359061019482610173565b565b60020b90565b6101a581610196565b036101ac57565b5f80fd5b905035906101bd8261019c565b565b90565b6101cb816101bf565b036101d257565b5f80fd5b905035906101e3826101c2565b565b909161014082840312610247576101fe835f840161014d565b9261020c8160208501610160565b9261021a8260c08301610187565b9261024461022b8460e085016101b0565b9361023a8161010086016101b0565b93610120016101d6565b90565b61009e565b61026661025a3660046101e5565b94939093929192610c58565b61026e610094565b80610278816100fe565b0390f35b5f91031261028657565b61009e565b7f000000000000000000000000000000000000000000000000000000000000000090565b6102b8906100b1565b9052565b91906102cf905f602085019401906102af565b565b34610301576102e136600461027c565b6102fd6102ec61028b565b6102f4610094565b918291826102bc565b0390f35b61009a565b7f000000000000000000000000000000000000000000000000000000000000000090565b3461035a5761033a36600461027c565b610356610345610306565b61034d610094565b918291826102bc565b0390f35b61009a565b7f000000000000000000000000000000000000000000000000000000000000000090565b90565b61039a61039561039f926100a6565b610383565b6100a6565b90565b6103ab90610386565b90565b6103b7906103a2565b90565b6103c3906103ae565b9052565b91906103da905f602085019401906103ba565b565b3461040c576103ec36600461027c565b6104086103f761035f565b6103ff610094565b918291826103c7565b0390f35b61009a565b5f80fd5b5f80fd5b5f80fd5b909182601f830112156104575781359167ffffffffffffffff831161045257602001926001830284011161044d57565b610419565b610415565b610411565b9060208282031261048d575f82013567ffffffffffffffff811161048857610484920161041d565b9091565b6100a2565b61009e565b5190565b60209181520190565b90825f9392825e0152565b601f801991011690565b6104d36104dc6020936104e1936104ca81610492565b93848093610496565b9586910161049f565b6104aa565b0190565b6104fa9160208201915f8184039101526104b4565b90565b3461052e5761052a61051961051336600461045c565b9061134d565b610521610094565b918291826104e5565b0390f35b61009a565b7f000000000000000000000000000000000000000000000000000000000000000090565b346105875761056736600461027c565b610583610572610533565b61057a610094565b918291826102bc565b0390f35b61009a565b5f80fd5b60209181520190565b5f7f6e6f74206465706c6f7965720000000000000000000000000000000000000000910152565b6105cd600c602092610590565b6105d681610599565b0190565b6105ef9060208101905f8183039101526105c0565b90565b156105f957565b610601610094565b62461bcd60e51b815280610617600482016105da565b0390fd5b90565b61063261062d6106379261061b565b610383565b6100a6565b90565b6106439061061e565b90565b61064f90610386565b90565b61065b90610646565b90565b610667906103a2565b90565b610673906103a2565b90565b5f80fd5b634e487b7160e01b5f52604160045260245ffd5b90610698906104aa565b810190811067ffffffffffffffff8211176106b257604052565b61067a565b60e01b90565b905051906106ca82610139565b565b906020828203126106e5576106e2915f016106bd565b90565b61009e565b6106f2610094565b3d5f823e3d90fd5b61070e6107096107139261061b565b610383565b610136565b90565b61071f90610386565b90565b61072b90610716565b90565b610737906103a2565b90565b6107763361077061076a7f00000000000000000000000000000000000000000000000000000000000000006100b1565b916100b1565b146105f2565b8061079161078b6107865f61063a565b6100b1565b916100b1565b145f1461081857506107a23061066a565b31806107b66107b05f6106fa565b91610136565b116107c0575b505b565b5f808080936107f66107f17f0000000000000000000000000000000000000000000000000000000000000000610722565b61072e565b82821561080f575bf11561080a575f6107bc565b6106ea565b506108fc6107fe565b610860602061082e61082984610652565b61065e565b6370a08231906108556108403061066a565b92610849610094565b958694859384936106b7565b8352600483016102bc565b03915afa9081156108fd575f916108cf575b50806108866108805f6106fa565b91610136565b11610893575b50506107be565b61089f6108c892610652565b907f00000000000000000000000000000000000000000000000000000000000000009091611c21565b5f8061088c565b6108f0915060203d81116108f6575b6108e8818361068e565b8101906106cc565b5f610872565b503d6108de565b6106ea565b600161090e9101610136565b90565b61091a90610386565b90565b61092690610911565b90565b610932906103a2565b90565b5f91031261093f57565b61009e565b905051906109518261019c565b565b9060208282031261096c57610969915f01610944565b90565b61009e565b61097a816100b1565b0361098157565b5f80fd5b9050359061099282610971565b565b506109a3906020810190610985565b90565b6109af906103a2565b90565b6109bb906109a6565b9052565b62ffffff1690565b6109d0816109bf565b036109d757565b5f80fd5b905035906109e8826109c7565b565b506109f99060208101906109db565b90565b610a05906109bf565b9052565b50610a189060208101906101b0565b90565b610a2490610196565b9052565b610a31906100b1565b90565b610a3d81610a28565b03610a4457565b5f80fd5b90503590610a5582610a34565b565b50610a66906020810190610a48565b90565b610a72906103a2565b90565b610a7e90610a69565b9052565b906080610afb610b0393610aa4610a9b5f830183610994565b5f8601906109b2565b610abe610ab46020830183610994565b60208601906109b2565b610ad8610ace60408301836109ea565b60408601906109fc565b610af2610ae86060830183610a09565b6060860190610a1b565b82810190610a57565b910190610a75565b565b610b0e906100a6565b9052565b9160a0610b33929493610b2c60c08201965f830190610a82565b0190610b05565b565b610b3e90610196565b9052565b610b4b906101bf565b9052565b610b85610b8c94610b7b60e094989795610b7161010086019a5f870190610a82565b60a0850190610b35565b60c0830190610b35565b0190610b42565b565b5f80fd5b90610ba5610b9e610094565b928361068e565b565b67ffffffffffffffff8111610bc557610bc16020916104aa565b0190565b61067a565b90929192610bdf610bda82610ba7565b610b92565b93818552602085019082840111610bfb57610bf99261049f565b565b610b8e565b9080601f83011215610c1e57816020610c1b93519101610bca565b90565b610411565b90602082820312610c53575f82015167ffffffffffffffff8111610c4e57610c4b9201610c00565b90565b6100a2565b61009e565b94919593929095610c9b33610c95610c8f7f00000000000000000000000000000000000000000000000000000000000000006100b1565b916100b1565b146105f2565b610ca45f6106fa565b5b80610cb8610cb289610136565b91610136565b1015610d8357610cef610cea7f000000000000000000000000000000000000000000000000000000000000000061091d565b610929565b90636a627842610cfe3061066a565b833b15610d7e57610d2e93610d235f8094610d17610094565b978895869485936106b7565b8352600483016102bc565b03925af1918215610d7957610d4892610d4d575b50610902565b610ca5565b610d6c905f3d8111610d72575b610d64818361068e565b810190610935565b5f610d42565b503d610d5a565b6106ea565b610676565b50610e8295505f9496610e63610e779387936020610dc07f00000000000000000000000000000000000000000000000000000000000000006103ae565b91636276cbbe92610de588889395610df0610dd9610094565b978896879586946106b7565b845260048401610b12565b03925af19081610ec3575b50158414610ebe576001610eb9575b5b610e54610e377f00000000000000000000000000000000000000000000000000000000000000006103ae565b966348c89491949298610e48610094565b998a9460208601610b4f565b6020820181038252038661068e565b610e6b610094565b968795869485936106b7565b8352600483016104e5565b03925af18015610eb457610e94575b50565b610eaf903d805f833e610ea7818361068e565b810190610c23565b610e91565b6106ea565b610e0a565b610e0b565b610ee39060203d8111610ee8575b610edb818361068e565b810190610953565b610dfb565b503d610ed1565b606090565b5f7f6f6e6c7920706d00000000000000000000000000000000000000000000000000910152565b610f286007602092610590565b610f3181610ef4565b0190565b610f4a9060208101905f818303910152610f1b565b90565b15610f5457565b610f5c610094565b62461bcd60e51b815280610f7260048201610f35565b0390fd5b5f80fd5b919060a083820312610fea57610fe390610f9460a0610b92565b93610fa1825f8301610985565b5f860152610fb28260208301610985565b6020860152610fc482604083016109db565b6040860152610fd682606083016101b0565b6060860152608001610a48565b6080830152565b610f76565b6101008183031261103157611006825f8301610f7a565b9261102e6110178460a085016101b0565b936110258160c086016101b0565b9360e0016101d6565b90565b61009e565b90565b5f1b90565b61105261104d6110579261061b565b611039565b611036565b90565b6110646080610b92565b90565b9061107190610196565b9052565b9061107f906101bf565b9052565b9061108d90611036565b9052565b61109a816101bf565b036110a157565b5f80fd5b905051906110b282611091565b565b91906040838203126110dc57806110d06110d9925f86016110a5565b936020016110a5565b90565b61009e565b90608080611139936110f95f8201515f8601906109b2565b61110b602082015160208601906109b2565b61111d604082015160408601906109fc565b61112f60608201516060860190610a1b565b0151910190610a75565b565b611144906101bf565b9052565b61115190611036565b9052565b9060608061119b9361116d5f8201515f860190610a1b565b61117f60208201516020860190610a1b565b6111916040820151604086019061113b565b0151910190611148565b565b6111a85f8092610496565b0190565b6111cf6111dd936111c56101408401945f8501906110e1565b60a0830190611155565b61012081830391015261119d565b90565b600f0b90565b6111fa6111f56111ff9261061b565b610383565b6111e0565b90565b634e487b7160e01b5f52601160045260245ffd5b61121f906111e0565b6f7fffffffffffffffffffffffffffffff19811461123c575f0390565b611202565b6fffffffffffffffffffffffffffffffff1690565b61126a61126561126f926111e0565b610383565b611241565b90565b61128661128161128b92611241565b610383565b610136565b90565b61129890516100b1565b90565b6112a4906109a6565b9052565b91906112bb905f6020850194019061129b565b565b6112c690610136565b9052565b6040906112f36112fa94969593966112e960608401985f85019061129b565b60208301906102af565b01906112bd565b565b67ffffffffffffffff811161131a576113166020916104aa565b0190565b61067a565b9061133161132c836112fc565b610b92565b918252565b61133f5f61131f565b90565b61134a611336565b90565b60405f6113af611443948294611361610eef565b506113a6336113a061139a6113957f00000000000000000000000000000000000000000000000000000000000000006103ae565b6100b1565b916100b1565b14610f4d565b90810190610fef565b9296919693909396939261142c6113e57f00000000000000000000000000000000000000000000000000000000000000006103ae565b94611423635a6bcfda9361141b8c99936114126114018961103e565b9561140a61105a565b9e8f01611067565b60208d01611067565b898b01611075565b60608901611083565b61144e611437610094565b978896879586946106b7565b8452600484016111ac565b03925af1908115611bc8575f91611b9b575b509061147461146e83611c73565b92611c82565b91806114886114825f6111e6565b916111e0565b12611913575b826114a161149b5f6111e6565b916111e0565b12611688575b806114ba6114b45f6111e6565b916111e0565b136115b8575b50816114d46114ce5f6111e6565b916111e0565b136114e7575b50506114e4611342565b90565b6115107f00000000000000000000000000000000000000000000000000000000000000006103ae565b6115216020630b0d9c09930161128e565b9061153c6115376115313061066a565b95611256565b611272565b92813b156115b3575f6115629161156d8296611556610094565b988997889687956106b7565b8552600485016112ca565b03925af180156115ae57611582575b806114da565b6115a1905f3d81116115a7575b611599818361068e565b810190610935565b5f61157c565b503d61158f565b6106ea565b610676565b6115e17f00000000000000000000000000000000000000000000000000000000000000006103ae565b630b0d9c09906115f25f850161128e565b9061160d6116086116023061066a565b95611256565b611272565b92813b15611683575f6116339161163e8296611627610094565b988997889687956106b7565b8552600485016112ca565b03925af1801561167e57611652575b6114c0565b611671905f3d8111611677575b611669818361068e565b810190610935565b5f61164d565b503d61165f565b6106ea565b610676565b6116a161169c61169785611216565b611256565b611272565b6116b56116b06020850161128e565b6109a6565b6116cf6116c96116c45f61063a565b6100b1565b916100b1565b145f1461177557602061171f6117047f00000000000000000000000000000000000000000000000000000000000000006103ae565b926311da60b4909390611715610094565b94859384926106b7565b82528161172e600482016100fe565b03925af1801561177057611744575b505b6114a7565b6117649060203d8111611769575b61175c818361068e565b8101906106cc565b61173d565b503d611752565b6106ea565b61179e7f00000000000000000000000000000000000000000000000000000000000000006103ae565b9063a58411946117b06020860161128e565b833b1561190e576117e0936117d55f80946117c9610094565b978895869485936106b7565b8352600483016112a8565b03925af191821561190957611842926118dd575b5061181161180c6118076020870161128e565b6109a6565b610652565b9061183b7f00000000000000000000000000000000000000000000000000000000000000006103ae565b9091611c21565b61188660206118707f00000000000000000000000000000000000000000000000000000000000000006103ae565b6311da60b49061187e610094565b9384926106b7565b8252815f81611897600482016100fe565b03925af180156118d8576118ac575b5061173f565b6118cc9060203d81116118d1575b6118c4818361068e565b8101906106cc565b6118a6565b503d6118ba565b6106ea565b6118fc905f3d8111611902575b6118f4818361068e565b810190610935565b5f6117f4565b503d6118ea565b6106ea565b610676565b61192c61192761192283611216565b611256565b611272565b61193f61193a5f850161128e565b6109a6565b61195961195361194e5f61063a565b6100b1565b916100b1565b145f146119ff5760206119a961198e7f00000000000000000000000000000000000000000000000000000000000000006103ae565b926311da60b490939061199f610094565b94859384926106b7565b8252816119b8600482016100fe565b03925af180156119fa576119ce575b505b61148e565b6119ee9060203d81116119f3575b6119e6818361068e565b8101906106cc565b6119c7565b503d6119dc565b6106ea565b611a287f00000000000000000000000000000000000000000000000000000000000000006103ae565b9063a5841194611a395f860161128e565b833b15611b9657611a6993611a5e5f8094611a52610094565b978895869485936106b7565b8352600483016112a8565b03925af1918215611b9157611aca92611b65575b50611a99611a94611a8f5f870161128e565b6109a6565b610652565b90611ac37f00000000000000000000000000000000000000000000000000000000000000006103ae565b9091611c21565b611b0e6020611af87f00000000000000000000000000000000000000000000000000000000000000006103ae565b6311da60b490611b06610094565b9384926106b7565b8252815f81611b1f600482016100fe565b03925af18015611b6057611b34575b506119c9565b611b549060203d8111611b59575b611b4c818361068e565b8101906106cc565b611b2e565b503d611b42565b6106ea565b611b84905f3d8111611b8a575b611b7c818361068e565b810190610935565b5f611a7d565b503d611b72565b6106ea565b610676565b611bbc915060403d8111611bc1575b611bb4818361068e565b8101906110b4565b611460565b503d611baa565b6106ea565b63ffffffff1690565b63ffffffff60e01b1690565b611bf6611bf1611bfb92611bcd565b6106b7565b611bd6565b90565b916020611c1f929493611c1860408201965f8301906102af565b01906112bd565b565b90611c68611c6d93611c5960049493611c4063a9059cbb919391611be2565b92611c49610094565b9687946020860190815201611bfe565b6020820181038252038361068e565b611cb4565b565b5f90565b611c7b611c6f565b5060801d90565b611c8a611c6f565b50600f0b90565b5f90565b90565b611cac611ca7611cb192611c95565b610383565b610136565b90565b905f602091611cc1611c91565b50611cca611c91565b50828151910182855af115611d5d573d5f5190611cef611ce95f6106fa565b91610136565b145f14611d435750611d008161065e565b3b611d13611d0d5f6106fa565b91610136565b145b611d1c5750565b611d28611d3f9161065e565b5f918291635274afe760e01b8352600483016102bc565b0390fd5b611d56611d506001611c98565b91610136565b1415611d15565b6040513d5f823e3d90fdfea2646970667358221220d97bb505966c51e111fb43246182431d364a3c371717caa3ae43da69118f72fe64736f6c634300081c0033000000000000000000000000e03a1074c86cfedd5c142c4f04f1a1536e203543000000000000000000000000ed9c5557d2e0abcc7c7fca958ee429219941349400000000000000000000000035d0186d1fd53b72996475d965c5ed171d52b986",
        "nonce": "0x84",
        "chainId": "0xaa36a7"
      },
      "additionalContracts": [],
      "isFixedGasLimit": false
    },
    {
      "hash": "0xa4ce55d46fabae2b6b175c63cfc71e1a7464557a2994d0a3da3d58605fb8eb95",
      "transactionType": "CALL",
      "contractName": "PoolSetupHelper",
      "contractAddress": "0xbded1de43ec40d9f62c43d94d3caae4b6c03c30a",
      "function": "setup(uint256,(address,address,uint24,int24,address),uint160,int24,int24,int256)",
      "arguments": [
        "100",
        "(0x0000000000000000000000000000000000000000, 0x35d0186d1FD53b72996475D965C5Ed171D52b986, 3000, 60, 0x0000000000000000000000000000000000000000)",
        "7922816251426433759354395033600",
        "69060",
        "115140",
        "1000000000000000000"
      ],
      "transaction": {
        "from": "0xfcc2238319ac360e985f1736abb3df6251daf6f5",
        "to": "0xbded1de43ec40d9f62c43d94d3caae4b6c03c30a",
        "gas": "0xf9160",
        "value": "0x6f05b59d3b20000",
        "input": "0x2ba409a10000000000000000000000000000000000000000000000000000000000000064000000000000000000000000000000000000000000000000000000000000000000000000000000000000000035d0186d1fd53b72996475d965c5ed171d52b9860000000000000000000000000000000000000000000000000000000000000bb8000000000000000000000000000000000000000000000000000000000000003c000000000000000000000000000000000000000000000000000000000000000000000000000000000000000000000000000000640000000000000000000000000000000000000000000000000000000000000000000000000000000000010dc4000000000000000000000000000000000000000000000000000000000001c1c40000000000000000000000000000000000000000000000000de0b6b3a7640000",
        "nonce": "0x85",
        "chainId": "0xaa36a7"
      },
      "additionalContracts": [],
      "isFixedGasLimit": false
    },
    {
      "hash": "0x008d4cce727b73e99f61c6404a01ef8cc141c4625049c944e078643143d03e6a",
      "transactionType": "CALL",
      "contractName": null,
      "contractAddress": "0xfff9976782d46cc05630d1f6ebab18b2324d6b14",
      "function": "deposit()",
      "arguments": [],
      "transaction": {
        "from": "0xfcc2238319ac360e985f1736abb3df6251daf6f5",
        "to": "0xfff9976782d46cc05630d1f6ebab18b2324d6b14",
        "gas": "0xf2ff",
        "value": "0x14d1120d7b160000",
        "input": "0xd0e30db0",
        "nonce": "0x86",
        "chainId": "0xaa36a7"
      },
      "additionalContracts": [],
      "isFixedGasLimit": false
    },
    {
      "hash": "0xc71f1fa0aacd051fffc07dad6db21c565f9bf1c8b199f19fa54804d6077a149f",
      "transactionType": "CALL",
      "contractName": null,
      "contractAddress": "0xfff9976782d46cc05630d1f6ebab18b2324d6b14",
      "function": "transfer(address,uint256)",
      "arguments": [
        "0xBdeD1De43Ec40D9f62C43D94d3CAAE4B6c03c30a",
        "1500000000000000000"
      ],
      "transaction": {
        "from": "0xfcc2238319ac360e985f1736abb3df6251daf6f5",
        "to": "0xfff9976782d46cc05630d1f6ebab18b2324d6b14",
        "gas": "0x10b53",
        "value": "0x0",
        "input": "0xa9059cbb000000000000000000000000bded1de43ec40d9f62c43d94d3caae4b6c03c30a00000000000000000000000000000000000000000000000014d1120d7b160000",
        "nonce": "0x87",
        "chainId": "0xaa36a7"
      },
      "additionalContracts": [],
      "isFixedGasLimit": false
    },
    {
      "hash": "0x6b60c075eaac362f9aee4aa990a2df2e0053facab6daada67950d47da6beec8e",
      "transactionType": "CALL",
      "contractName": null,
      "contractAddress": "0x47e16bd8702bcef388085c0371ba0b87fa883f5e",
      "function": "transfer(address,uint256)",
      "arguments": [
        "0xBdeD1De43Ec40D9f62C43D94d3CAAE4B6c03c30a",
        "3000000000"
      ],
      "transaction": {
        "from": "0xfcc2238319ac360e985f1736abb3df6251daf6f5",
        "to": "0x47e16bd8702bcef388085c0371ba0b87fa883f5e",
        "gas": "0x1299f",
        "value": "0x0",
        "input": "0xa9059cbb000000000000000000000000bded1de43ec40d9f62c43d94d3caae4b6c03c30a00000000000000000000000000000000000000000000000000000000b2d05e00",
        "nonce": "0x88",
        "chainId": "0xaa36a7"
      },
      "additionalContracts": [],
      "isFixedGasLimit": false
    },
    {
      "hash": "0x721e803b118600031e22f198ba3a4be43a37802193c766cb684ad95263aaccac",
      "transactionType": "CALL",
      "contractName": "PoolSetupHelper",
      "contractAddress": "0xbded1de43ec40d9f62c43d94d3caae4b6c03c30a",
      "function": "setup(uint256,(address,address,uint24,int24,address),uint160,int24,int24,int256)",
      "arguments": [
        "0",
        "(0x47E16BD8702BCef388085c0371Ba0B87fA883f5e, 0xfFf9976782d46CC05630D1f6eBAb18b2324d6B14, 3000, 60, 0x0000000000000000000000000000000000000000)",
        "1728916962386276374966316084832192",
        "169800",
        "229800",
        "60000000000000"
      ],
      "transaction": {
        "from": "0xfcc2238319ac360e985f1736abb3df6251daf6f5",
        "to": "0xbded1de43ec40d9f62c43d94d3caae4b6c03c30a",
        "gas": "0x6cd65",
        "value": "0x0",
        "input": "0x2ba409a1000000000000000000000000000000000000000000000000000000000000000000000000000000000000000047e16bd8702bcef388085c0371ba0b87fa883f5e000000000000000000000000fff9976782d46cc05630d1f6ebab18b2324d6b140000000000000000000000000000000000000000000000000000000000000bb8000000000000000000000000000000000000000000000000000000000000003c0000000000000000000000000000000000000000000000000000000000000000000000000000000000000000000000000000553e0000000000000000000927c0000000000000000000000000000000000000000000000000000000000002974800000000000000000000000000000000000000000000000000000000000381a800000000000000000000000000000000000000000000000000003691d6afc000",
        "nonce": "0x89",
        "chainId": "0xaa36a7"
      },
      "additionalContracts": [],
      "isFixedGasLimit": false
    },
    {
      "hash": "0x0d80d97abadf895e90719028db2d47cb7a504b3799466042487fbaa6173c9dc8",
      "transactionType": "CALL",
      "contractName": "PoolSetupHelper",
      "contractAddress": "0xbded1de43ec40d9f62c43d94d3caae4b6c03c30a",
      "function": "sweep(address)",
      "arguments": [
        "0x0000000000000000000000000000000000000000"
      ],
      "transaction": {
        "from": "0xfcc2238319ac360e985f1736abb3df6251daf6f5",
        "to": "0xbded1de43ec40d9f62c43d94d3caae4b6c03c30a",
        "gas": "0xa198",
        "value": "0x0",
        "input": "0x01681a620000000000000000000000000000000000000000000000000000000000000000",
        "nonce": "0x8a",
        "chainId": "0xaa36a7"
      },
      "additionalContracts": [],
      "isFixedGasLimit": false
    },
    {
      "hash": "0x404912b7c7aafe85f94f2b794c24fcb09baf0f839b13346019d8ecfc8d84179c",
      "transactionType": "CALL",
      "contractName": "PoolSetupHelper",
      "contractAddress": "0xbded1de43ec40d9f62c43d94d3caae4b6c03c30a",
      "function": "sweep(address)",
      "arguments": [
        "0x35d0186d1FD53b72996475D965C5Ed171D52b986"
      ],
      "transaction": {
        "from": "0xfcc2238319ac360e985f1736abb3df6251daf6f5",
        "to": "0xbded1de43ec40d9f62c43d94d3caae4b6c03c30a",
        "gas": "0xc5cc",
        "value": "0x0",
        "input": "0x01681a6200000000000000000000000035d0186d1fd53b72996475d965c5ed171d52b986",
        "nonce": "0x8b",
        "chainId": "0xaa36a7"
      },
      "additionalContracts": [],
      "isFixedGasLimit": false
    },
    {
      "hash": "0x95511bd50fa94d751c736fea0635fc463fc5788f83ae6c658448ecb71cafb9b4",
      "transactionType": "CALL",
      "contractName": "PoolSetupHelper",
      "contractAddress": "0xbded1de43ec40d9f62c43d94d3caae4b6c03c30a",
      "function": "sweep(address)",
      "arguments": [
        "0xfFf9976782d46CC05630D1f6eBAb18b2324d6B14"
      ],
      "transaction": {
        "from": "0xfcc2238319ac360e985f1736abb3df6251daf6f5",
        "to": "0xbded1de43ec40d9f62c43d94d3caae4b6c03c30a",
        "gas": "0x121b2",
        "value": "0x0",
        "input": "0x01681a62000000000000000000000000fff9976782d46cc05630d1f6ebab18b2324d6b14",
        "nonce": "0x8c",
        "chainId": "0xaa36a7"
      },
      "additionalContracts": [],
      "isFixedGasLimit": false
    },
    {
      "hash": "0xcc2dff26dc1a87c470edb9c8137c17fbf4013cf0eb0a90ea3231b20a0dc7222f",
      "transactionType": "CALL",
      "contractName": "PoolSetupHelper",
      "contractAddress": "0xbded1de43ec40d9f62c43d94d3caae4b6c03c30a",
      "function": "sweep(address)",
      "arguments": [
        "0x47E16BD8702BCef388085c0371Ba0B87fA883f5e"
      ],
      "transaction": {
        "from": "0xfcc2238319ac360e985f1736abb3df6251daf6f5",
        "to": "0xbded1de43ec40d9f62c43d94d3caae4b6c03c30a",
        "gas": "0xd651",
        "value": "0x0",
        "input": "0x01681a6200000000000000000000000047e16bd8702bcef388085c0371ba0b87fa883f5e",
        "nonce": "0x8d",
        "chainId": "0xaa36a7"
      },
      "additionalContracts": [],
      "isFixedGasLimit": false
    }
  ],
  "receipts": [
    {
      "status": "0x1",
      "cumulativeGasUsed": "0x1c0d0a5",
      "logs": [
        {
          "address": "0x547be2f85f371f85ffb7f5ba1a972ead88d7db42",
          "topics": [
            "0x8be0079c531659141344cd1fd0a4f28419497f9722a3daafe3b4186f6b6457e0",
            "0x0000000000000000000000000000000000000000000000000000000000000000",
            "0x000000000000000000000000fcc2238319ac360e985f1736abb3df6251daf6f5"
          ],
          "data": "0x",
          "blockHash": "0xbad07aa36c4bf69ba9ccebc717df2e3534f909d94b12607bbf18d48fd969cf9a",
          "blockNumber": "0x9f622f",
          "blockTimestamp": "0x69b55af8",
          "transactionHash": "0xe66608d7c670e1b65a1ec383212903c1af371b2e7bbcb233aba6a9094fd03f00",
          "transactionIndex": "0x110",
          "logIndex": "0x181",
          "removed": false
        }
      ],
      "logsBloom": "0x02000000000000000000000000000000000000000080000000800000000000000000000000000000000000000000000000000000000000000000000000000000000000000000000000000000000000000001000000000000000000000000000000000000020000000000000000000800000000000000000000000000000000400000004000000000000000000000000000000000000000000001000000400000000000000000000000000000000000000000000000000000000000000000000000000000000000000000000000000000000000000000000000000000000020000000000000000000000000000000000000000000000100000000000000000000",
      "type": "0x2",
      "transactionHash": "0xe66608d7c670e1b65a1ec383212903c1af371b2e7bbcb233aba6a9094fd03f00",
      "transactionIndex": "0x110",
      "blockHash": "0xbad07aa36c4bf69ba9ccebc717df2e3534f909d94b12607bbf18d48fd969cf9a",
      "blockNumber": "0x9f622f",
      "gasUsed": "0x2bb457",
      "effectiveGasPrice": "0xf4249",
      "from": "0xfcc2238319ac360e985f1736abb3df6251daf6f5",
      "to": null,
      "contractAddress": "0x547be2f85f371f85ffb7f5ba1a972ead88d7db42"
    },
    {
      "status": "0x1",
      "cumulativeGasUsed": "0x1daa893",
      "logs": [],
      "logsBloom": "0x00000000000000000000000000000000000000000000000000000000000000000000000000000000000000000000000000000000000000000000000000000000000000000000000000000000000000000000000000000000000000000000000000000000000000000000000000000000000000000000000000000000000000000000000000000000000000000000000000000000000000000000000000000000000000000000000000000000000000000000000000000000000000000000000000000000000000000000000000000000000000000000000000000000000000000000000000000000000000000000000000000000000000000000000000000000",
      "type": "0x2",
      "transactionHash": "0x39e527ecd9eeb04b3a258b94215b213a4f1434915109ab87aef530ca19a2c440",
      "transactionIndex": "0x111",
      "blockHash": "0xbad07aa36c4bf69ba9ccebc717df2e3534f909d94b12607bbf18d48fd969cf9a",
      "blockNumber": "0x9f622f",
      "gasUsed": "0x19d7ee",
      "effectiveGasPrice": "0xf4249",
      "from": "0xfcc2238319ac360e985f1736abb3df6251daf6f5",
      "to": null,
      "contractAddress": "0xbded1de43ec40d9f62c43d94d3caae4b6c03c30a"
    },
    {
      "status": "0x1",
      "cumulativeGasUsed": "0x1e5edeb",
      "logs": [
        {
          "address": "0x35d0186d1fd53b72996475d965c5ed171d52b986",
          "topics": [
            "0xddf252ad1be2c89b69c2b068fc378daa952ba7f163c4a11628f55a4df523b3ef",
            "0x0000000000000000000000000000000000000000000000000000000000000000",
            "0x000000000000000000000000bded1de43ec40d9f62c43d94d3caae4b6c03c30a"
          ],
          "data": "0x00000000000000000000000000000000000000000000003635c9adc5dea00000",
          "blockHash": "0xbad07aa36c4bf69ba9ccebc717df2e3534f909d94b12607bbf18d48fd969cf9a",
          "blockNumber": "0x9f622f",
          "blockTimestamp": "0x69b55af8",
          "transactionHash": "0xa4ce55d46fabae2b6b175c63cfc71e1a7464557a2994d0a3da3d58605fb8eb95",
          "transactionIndex": "0x112",
          "logIndex": "0x182",
          "removed": false
        },
        {
          "address": "0x35d0186d1fd53b72996475d965c5ed171d52b986",
          "topics": [
            "0xddf252ad1be2c89b69c2b068fc378daa952ba7f163c4a11628f55a4df523b3ef",
            "0x0000000000000000000000000000000000000000000000000000000000000000",
            "0x000000000000000000000000bded1de43ec40d9f62c43d94d3caae4b6c03c30a"
          ],
          "data": "0x00000000000000000000000000000000000000000000003635c9adc5dea00000",
          "blockHash": "0xbad07aa36c4bf69ba9ccebc717df2e3534f909d94b12607bbf18d48fd969cf9a",
          "blockNumber": "0x9f622f",
          "blockTimestamp": "0x69b55af8",
          "transactionHash": "0xa4ce55d46fabae2b6b175c63cfc71e1a7464557a2994d0a3da3d58605fb8eb95",
          "transactionIndex": "0x112",
          "logIndex": "0x183",
          "removed": false
        },
        {
          "address": "0x35d0186d1fd53b72996475d965c5ed171d52b986",
          "topics": [
            "0xddf252ad1be2c89b69c2b068fc378daa952ba7f163c4a11628f55a4df523b3ef",
            "0x0000000000000000000000000000000000000000000000000000000000000000",
            "0x000000000000000000000000bded1de43ec40d9f62c43d94d3caae4b6c03c30a"
          ],
          "data": "0x00000000000000000000000000000000000000000000003635c9adc5dea00000",
          "blockHash": "0xbad07aa36c4bf69ba9ccebc717df2e3534f909d94b12607bbf18d48fd969cf9a",
          "blockNumber": "0x9f622f",
          "blockTimestamp": "0x69b55af8",
          "transactionHash": "0xa4ce55d46fabae2b6b175c63cfc71e1a7464557a2994d0a3da3d58605fb8eb95",
          "transactionIndex": "0x112",
          "logIndex": "0x184",
          "removed": false
        },
        {
          "address": "0x35d0186d1fd53b72996475d965c5ed171d52b986",
          "topics": [
            "0xddf252ad1be2c89b69c2b068fc378daa952ba7f163c4a11628f55a4df523b3ef",
            "0x0000000000000000000000000000000000000000000000000000000000000000",
            "0x000000000000000000000000bded1de43ec40d9f62c43d94d3caae4b6c03c30a"
          ],
          "data": "0x00000000000000000000000000000000000000000000003635c9adc5dea00000",
          "blockHash": "0xbad07aa36c4bf69ba9ccebc717df2e3534f909d94b12607bbf18d48fd969cf9a",
          "blockNumber": "0x9f622f",
          "blockTimestamp": "0x69b55af8",
          "transactionHash": "0xa4ce55d46fabae2b6b175c63cfc71e1a7464557a2994d0a3da3d58605fb8eb95",
          "transactionIndex": "0x112",
          "logIndex": "0x185",
          "removed": false
        },
        {
          "address": "0x35d0186d1fd53b72996475d965c5ed171d52b986",
          "topics": [
            "0xddf252ad1be2c89b69c2b068fc378daa952ba7f163c4a11628f55a4df523b3ef",
            "0x0000000000000000000000000000000000000000000000000000000000000000",
            "0x000000000000000000000000bded1de43ec40d9f62c43d94d3caae4b6c03c30a"
          ],
          "data": "0x00000000000000000000000000000000000000000000003635c9adc5dea00000",
          "blockHash": "0xbad07aa36c4bf69ba9ccebc717df2e3534f909d94b12607bbf18d48fd969cf9a",
          "blockNumber": "0x9f622f",
          "blockTimestamp": "0x69b55af8",
          "transactionHash": "0xa4ce55d46fabae2b6b175c63cfc71e1a7464557a2994d0a3da3d58605fb8eb95",
          "transactionIndex": "0x112",
          "logIndex": "0x186",
          "removed": false
        },
        {
          "address": "0x35d0186d1fd53b72996475d965c5ed171d52b986",
          "topics": [
            "0xddf252ad1be2c89b69c2b068fc378daa952ba7f163c4a11628f55a4df523b3ef",
            "0x0000000000000000000000000000000000000000000000000000000000000000",
            "0x000000000000000000000000bded1de43ec40d9f62c43d94d3caae4b6c03c30a"
          ],
          "data": "0x00000000000000000000000000000000000000000000003635c9adc5dea00000",
          "blockHash": "0xbad07aa36c4bf69ba9ccebc717df2e3534f909d94b12607bbf18d48fd969cf9a",
          "blockNumber": "0x9f622f",
          "blockTimestamp": "0x69b55af8",
          "transactionHash": "0xa4ce55d46fabae2b6b175c63cfc71e1a7464557a2994d0a3da3d58605fb8eb95",
          "transactionIndex": "0x112",
          "logIndex": "0x187",
          "removed": false
        },
        {
          "address": "0x35d0186d1fd53b72996475d965c5ed171d52b986",
          "topics": [
            "0xddf252ad1be2c89b69c2b068fc378daa952ba7f163c4a11628f55a4df523b3ef",
            "0x0000000000000000000000000000000000000000000000000000000000000000",
            "0x000000000000000000000000bded1de43ec40d9f62c43d94d3caae4b6c03c30a"
          ],
          "data": "0x00000000000000000000000000000000000000000000003635c9adc5dea00000",
          "blockHash": "0xbad07aa36c4bf69ba9ccebc717df2e3534f909d94b12607bbf18d48fd969cf9a",
          "blockNumber": "0x9f622f",
          "blockTimestamp": "0x69b55af8",
          "transactionHash": "0xa4ce55d46fabae2b6b175c63cfc71e1a7464557a2994d0a3da3d58605fb8eb95",
          "transactionIndex": "0x112",
          "logIndex": "0x188",
          "removed": false
        },
        {
          "address": "0x35d0186d1fd53b72996475d965c5ed171d52b986",
          "topics": [
            "0xddf252ad1be2c89b69c2b068fc378daa952ba7f163c4a11628f55a4df523b3ef",
            "0x0000000000000000000000000000000000000000000000000000000000000000",
            "0x000000000000000000000000bded1de43ec40d9f62c43d94d3caae4b6c03c30a"
          ],
          "data": "0x00000000000000000000000000000000000000000000003635c9adc5dea00000",
          "blockHash": "0xbad07aa36c4bf69ba9ccebc717df2e3534f909d94b12607bbf18d48fd969cf9a",
          "blockNumber": "0x9f622f",
          "blockTimestamp": "0x69b55af8",
          "transactionHash": "0xa4ce55d46fabae2b6b175c63cfc71e1a7464557a2994d0a3da3d58605fb8eb95",
          "transactionIndex": "0x112",
          "logIndex": "0x189",
          "removed": false
        },
        {
          "address": "0x35d0186d1fd53b72996475d965c5ed171d52b986",
          "topics": [
            "0xddf252ad1be2c89b69c2b068fc378daa952ba7f163c4a11628f55a4df523b3ef",
            "0x0000000000000000000000000000000000000000000000000000000000000000",
            "0x000000000000000000000000bded1de43ec40d9f62c43d94d3caae4b6c03c30a"
          ],
          "data": "0x00000000000000000000000000000000000000000000003635c9adc5dea00000",
          "blockHash": "0xbad07aa36c4bf69ba9ccebc717df2e3534f909d94b12607bbf18d48fd969cf9a",
          "blockNumber": "0x9f622f",
          "blockTimestamp": "0x69b55af8",
          "transactionHash": "0xa4ce55d46fabae2b6b175c63cfc71e1a7464557a2994d0a3da3d58605fb8eb95",
          "transactionIndex": "0x112",
          "logIndex": "0x18a",
          "removed": false
        },
        {
          "address": "0x35d0186d1fd53b72996475d965c5ed171d52b986",
          "topics": [
            "0xddf252ad1be2c89b69c2b068fc378daa952ba7f163c4a11628f55a4df523b3ef",
            "0x0000000000000000000000000000000000000000000000000000000000000000",
            "0x000000000000000000000000bded1de43ec40d9f62c43d94d3caae4b6c03c30a"
          ],
          "data": "0x00000000000000000000000000000000000000000000003635c9adc5dea00000",
          "blockHash": "0xbad07aa36c4bf69ba9ccebc717df2e3534f909d94b12607bbf18d48fd969cf9a",
          "blockNumber": "0x9f622f",
          "blockTimestamp": "0x69b55af8",
          "transactionHash": "0xa4ce55d46fabae2b6b175c63cfc71e1a7464557a2994d0a3da3d58605fb8eb95",
          "transactionIndex": "0x112",
          "logIndex": "0x18b",
          "removed": false
        },
        {
          "address": "0x35d0186d1fd53b72996475d965c5ed171d52b986",
          "topics": [
            "0xddf252ad1be2c89b69c2b068fc378daa952ba7f163c4a11628f55a4df523b3ef",
            "0x0000000000000000000000000000000000000000000000000000000000000000",
            "0x000000000000000000000000bded1de43ec40d9f62c43d94d3caae4b6c03c30a"
          ],
          "data": "0x00000000000000000000000000000000000000000000003635c9adc5dea00000",
          "blockHash": "0xbad07aa36c4bf69ba9ccebc717df2e3534f909d94b12607bbf18d48fd969cf9a",
          "blockNumber": "0x9f622f",
          "blockTimestamp": "0x69b55af8",
          "transactionHash": "0xa4ce55d46fabae2b6b175c63cfc71e1a7464557a2994d0a3da3d58605fb8eb95",
          "transactionIndex": "0x112",
          "logIndex": "0x18c",
          "removed": false
        },
        {
          "address": "0x35d0186d1fd53b72996475d965c5ed171d52b986",
          "topics": [
            "0xddf252ad1be2c89b69c2b068fc378daa952ba7f163c4a11628f55a4df523b3ef",
            "0x0000000000000000000000000000000000000000000000000000000000000000",
            "0x000000000000000000000000bded1de43ec40d9f62c43d94d3caae4b6c03c30a"
          ],
          "data": "0x00000000000000000000000000000000000000000000003635c9adc5dea00000",
          "blockHash": "0xbad07aa36c4bf69ba9ccebc717df2e3534f909d94b12607bbf18d48fd969cf9a",
          "blockNumber": "0x9f622f",
          "blockTimestamp": "0x69b55af8",
          "transactionHash": "0xa4ce55d46fabae2b6b175c63cfc71e1a7464557a2994d0a3da3d58605fb8eb95",
          "transactionIndex": "0x112",
          "logIndex": "0x18d",
          "removed": false
        },
        {
          "address": "0x35d0186d1fd53b72996475d965c5ed171d52b986",
          "topics": [
            "0xddf252ad1be2c89b69c2b068fc378daa952ba7f163c4a11628f55a4df523b3ef",
            "0x0000000000000000000000000000000000000000000000000000000000000000",
            "0x000000000000000000000000bded1de43ec40d9f62c43d94d3caae4b6c03c30a"
          ],
          "data": "0x00000000000000000000000000000000000000000000003635c9adc5dea00000",
          "blockHash": "0xbad07aa36c4bf69ba9ccebc717df2e3534f909d94b12607bbf18d48fd969cf9a",
          "blockNumber": "0x9f622f",
          "blockTimestamp": "0x69b55af8",
          "transactionHash": "0xa4ce55d46fabae2b6b175c63cfc71e1a7464557a2994d0a3da3d58605fb8eb95",
          "transactionIndex": "0x112",
          "logIndex": "0x18e",
          "removed": false
        },
        {
          "address": "0x35d0186d1fd53b72996475d965c5ed171d52b986",
          "topics": [
            "0xddf252ad1be2c89b69c2b068fc378daa952ba7f163c4a11628f55a4df523b3ef",
            "0x0000000000000000000000000000000000000000000000000000000000000000",
            "0x000000000000000000000000bded1de43ec40d9f62c43d94d3caae4b6c03c30a"
          ],
          "data": "0x00000000000000000000000000000000000000000000003635c9adc5dea00000",
          "blockHash": "0xbad07aa36c4bf69ba9ccebc717df2e3534f909d94b12607bbf18d48fd969cf9a",
          "blockNumber": "0x9f622f",
          "blockTimestamp": "0x69b55af8",
          "transactionHash": "0xa4ce55d46fabae2b6b175c63cfc71e1a7464557a2994d0a3da3d58605fb8eb95",
          "transactionIndex": "0x112",
          "logIndex": "0x18f",
          "removed": false
        },
        {
          "address": "0x35d0186d1fd53b72996475d965c5ed171d52b986",
          "topics": [
            "0xddf252ad1be2c89b69c2b068fc378daa952ba7f163c4a11628f55a4df523b3ef",
            "0x0000000000000000000000000000000000000000000000000000000000000000",
            "0x000000000000000000000000bded1de43ec40d9f62c43d94d3caae4b6c03c30a"
          ],
          "data": "0x00000000000000000000000000000000000000000000003635c9adc5dea00000",
          "blockHash": "0xbad07aa36c4bf69ba9ccebc717df2e3534f909d94b12607bbf18d48fd969cf9a",
          "blockNumber": "0x9f622f",
          "blockTimestamp": "0x69b55af8",
          "transactionHash": "0xa4ce55d46fabae2b6b175c63cfc71e1a7464557a2994d0a3da3d58605fb8eb95",
          "transactionIndex": "0x112",
          "logIndex": "0x190",
          "removed": false
        },
        {
          "address": "0x35d0186d1fd53b72996475d965c5ed171d52b986",
          "topics": [
            "0xddf252ad1be2c89b69c2b068fc378daa952ba7f163c4a11628f55a4df523b3ef",
            "0x0000000000000000000000000000000000000000000000000000000000000000",
            "0x000000000000000000000000bded1de43ec40d9f62c43d94d3caae4b6c03c30a"
          ],
          "data": "0x00000000000000000000000000000000000000000000003635c9adc5dea00000",
          "blockHash": "0xbad07aa36c4bf69ba9ccebc717df2e3534f909d94b12607bbf18d48fd969cf9a",
          "blockNumber": "0x9f622f",
          "blockTimestamp": "0x69b55af8",
          "transactionHash": "0xa4ce55d46fabae2b6b175c63cfc71e1a7464557a2994d0a3da3d58605fb8eb95",
          "transactionIndex": "0x112",
          "logIndex": "0x191",
          "removed": false
        },
        {
          "address": "0x35d0186d1fd53b72996475d965c5ed171d52b986",
          "topics": [
            "0xddf252ad1be2c89b69c2b068fc378daa952ba7f163c4a11628f55a4df523b3ef",
            "0x0000000000000000000000000000000000000000000000000000000000000000",
            "0x000000000000000000000000bded1de43ec40d9f62c43d94d3caae4b6c03c30a"
          ],
          "data": "0x00000000000000000000000000000000000000000000003635c9adc5dea00000",
          "blockHash": "0xbad07aa36c4bf69ba9ccebc717df2e3534f909d94b12607bbf18d48fd969cf9a",
          "blockNumber": "0x9f622f",
          "blockTimestamp": "0x69b55af8",
          "transactionHash": "0xa4ce55d46fabae2b6b175c63cfc71e1a7464557a2994d0a3da3d58605fb8eb95",
          "transactionIndex": "0x112",
          "logIndex": "0x192",
          "removed": false
        },
        {
          "address": "0x35d0186d1fd53b72996475d965c5ed171d52b986",
          "topics": [
            "0xddf252ad1be2c89b69c2b068fc378daa952ba7f163c4a11628f55a4df523b3ef",
            "0x0000000000000000000000000000000000000000000000000000000000000000",
            "0x000000000000000000000000bded1de43ec40d9f62c43d94d3caae4b6c03c30a"
          ],
          "data": "0x00000000000000000000000000000000000000000000003635c9adc5dea00000",
          "blockHash": "0xbad07aa36c4bf69ba9ccebc717df2e3534f909d94b12607bbf18d48fd969cf9a",
          "blockNumber": "0x9f622f",
          "blockTimestamp": "0x69b55af8",
          "transactionHash": "0xa4ce55d46fabae2b6b175c63cfc71e1a7464557a2994d0a3da3d58605fb8eb95",
          "transactionIndex": "0x112",
          "logIndex": "0x193",
          "removed": false
        },
        {
          "address": "0x35d0186d1fd53b72996475d965c5ed171d52b986",
          "topics": [
            "0xddf252ad1be2c89b69c2b068fc378daa952ba7f163c4a11628f55a4df523b3ef",
            "0x0000000000000000000000000000000000000000000000000000000000000000",
            "0x000000000000000000000000bded1de43ec40d9f62c43d94d3caae4b6c03c30a"
          ],
          "data": "0x00000000000000000000000000000000000000000000003635c9adc5dea00000",
          "blockHash": "0xbad07aa36c4bf69ba9ccebc717df2e3534f909d94b12607bbf18d48fd969cf9a",
          "blockNumber": "0x9f622f",
          "blockTimestamp": "0x69b55af8",
          "transactionHash": "0xa4ce55d46fabae2b6b175c63cfc71e1a7464557a2994d0a3da3d58605fb8eb95",
          "transactionIndex": "0x112",
          "logIndex": "0x194",
          "removed": false
        },
        {
          "address": "0x35d0186d1fd53b72996475d965c5ed171d52b986",
          "topics": [
            "0xddf252ad1be2c89b69c2b068fc378daa952ba7f163c4a11628f55a4df523b3ef",
            "0x0000000000000000000000000000000000000000000000000000000000000000",
            "0x000000000000000000000000bded1de43ec40d9f62c43d94d3caae4b6c03c30a"
          ],
          "data": "0x00000000000000000000000000000000000000000000003635c9adc5dea00000",
          "blockHash": "0xbad07aa36c4bf69ba9ccebc717df2e3534f909d94b12607bbf18d48fd969cf9a",
          "blockNumber": "0x9f622f",
          "blockTimestamp": "0x69b55af8",
          "transactionHash": "0xa4ce55d46fabae2b6b175c63cfc71e1a7464557a2994d0a3da3d58605fb8eb95",
          "transactionIndex": "0x112",
          "logIndex": "0x195",
          "removed": false
        },
        {
          "address": "0x35d0186d1fd53b72996475d965c5ed171d52b986",
          "topics": [
            "0xddf252ad1be2c89b69c2b068fc378daa952ba7f163c4a11628f55a4df523b3ef",
            "0x0000000000000000000000000000000000000000000000000000000000000000",
            "0x000000000000000000000000bded1de43ec40d9f62c43d94d3caae4b6c03c30a"
          ],
          "data": "0x00000000000000000000000000000000000000000000003635c9adc5dea00000",
          "blockHash": "0xbad07aa36c4bf69ba9ccebc717df2e3534f909d94b12607bbf18d48fd969cf9a",
          "blockNumber": "0x9f622f",
          "blockTimestamp": "0x69b55af8",
          "transactionHash": "0xa4ce55d46fabae2b6b175c63cfc71e1a7464557a2994d0a3da3d58605fb8eb95",
          "transactionIndex": "0x112",
          "logIndex": "0x196",
          "removed": false
        },
        {
          "address": "0x35d0186d1fd53b72996475d965c5ed171d52b986",
          "topics": [
            "0xddf252ad1be2c89b69c2b068fc378daa952ba7f163c4a11628f55a4df523b3ef",
            "0x0000000000000000000000000000000000000000000000000000000000000000",
            "0x000000000000000000000000bded1de43ec40d9f62c43d94d3caae4b6c03c30a"
          ],
          "data": "0x00000000000000000000000000000000000000000000003635c9adc5dea00000",
          "blockHash": "0xbad07aa36c4bf69ba9ccebc717df2e3534f909d94b12607bbf18d48fd969cf9a",
          "blockNumber": "0x9f622f",
          "blockTimestamp": "0x69b55af8",
          "transactionHash": "0xa4ce55d46fabae2b6b175c63cfc71e1a7464557a2994d0a3da3d58605fb8eb95",
          "transactionIndex": "0x112",
          "logIndex": "0x197",
          "removed": false
        },
        {
          "address": "0x35d0186d1fd53b72996475d965c5ed171d52b986",
          "topics": [
            "0xddf252ad1be2c89b69c2b068fc378daa952ba7f163c4a11628f55a4df523b3ef",
            "0x0000000000000000000000000000000000000000000000000000000000000000",
            "0x000000000000000000000000bded1de43ec40d9f62c43d94d3caae4b6c03c30a"
          ],
          "data": "0x00000000000000000000000000000000000000000000003635c9adc5dea00000",
          "blockHash": "0xbad07aa36c4bf69ba9ccebc717df2e3534f909d94b12607bbf18d48fd969cf9a",
          "blockNumber": "0x9f622f",
          "blockTimestamp": "0x69b55af8",
          "transactionHash": "0xa4ce55d46fabae2b6b175c63cfc71e1a7464557a2994d0a3da3d58605fb8eb95",
          "transactionIndex": "0x112",
          "logIndex": "0x198",
          "removed": false
        },
        {
          "address": "0x35d0186d1fd53b72996475d965c5ed171d52b986",
          "topics": [
            "0xddf252ad1be2c89b69c2b068fc378daa952ba7f163c4a11628f55a4df523b3ef",
            "0x0000000000000000000000000000000000000000000000000000000000000000",
            "0x000000000000000000000000bded1de43ec40d9f62c43d94d3caae4b6c03c30a"
          ],
          "data": "0x00000000000000000000000000000000000000000000003635c9adc5dea00000",
          "blockHash": "0xbad07aa36c4bf69ba9ccebc717df2e3534f909d94b12607bbf18d48fd969cf9a",
          "blockNumber": "0x9f622f",
          "blockTimestamp": "0x69b55af8",
          "transactionHash": "0xa4ce55d46fabae2b6b175c63cfc71e1a7464557a2994d0a3da3d58605fb8eb95",
          "transactionIndex": "0x112",
          "logIndex": "0x199",
          "removed": false
        },
        {
          "address": "0x35d0186d1fd53b72996475d965c5ed171d52b986",
          "topics": [
            "0xddf252ad1be2c89b69c2b068fc378daa952ba7f163c4a11628f55a4df523b3ef",
            "0x0000000000000000000000000000000000000000000000000000000000000000",
            "0x000000000000000000000000bded1de43ec40d9f62c43d94d3caae4b6c03c30a"
          ],
          "data": "0x00000000000000000000000000000000000000000000003635c9adc5dea00000",
          "blockHash": "0xbad07aa36c4bf69ba9ccebc717df2e3534f909d94b12607bbf18d48fd969cf9a",
          "blockNumber": "0x9f622f",
          "blockTimestamp": "0x69b55af8",
          "transactionHash": "0xa4ce55d46fabae2b6b175c63cfc71e1a7464557a2994d0a3da3d58605fb8eb95",
          "transactionIndex": "0x112",
          "logIndex": "0x19a",
          "removed": false
        },
        {
          "address": "0x35d0186d1fd53b72996475d965c5ed171d52b986",
          "topics": [
            "0xddf252ad1be2c89b69c2b068fc378daa952ba7f163c4a11628f55a4df523b3ef",
            "0x0000000000000000000000000000000000000000000000000000000000000000",
            "0x000000000000000000000000bded1de43ec40d9f62c43d94d3caae4b6c03c30a"
          ],
          "data": "0x00000000000000000000000000000000000000000000003635c9adc5dea00000",
          "blockHash": "0xbad07aa36c4bf69ba9ccebc717df2e3534f909d94b12607bbf18d48fd969cf9a",
          "blockNumber": "0x9f622f",
          "blockTimestamp": "0x69b55af8",
          "transactionHash": "0xa4ce55d46fabae2b6b175c63cfc71e1a7464557a2994d0a3da3d58605fb8eb95",
          "transactionIndex": "0x112",
          "logIndex": "0x19b",
          "removed": false
        },
        {
          "address": "0x35d0186d1fd53b72996475d965c5ed171d52b986",
          "topics": [
            "0xddf252ad1be2c89b69c2b068fc378daa952ba7f163c4a11628f55a4df523b3ef",
            "0x0000000000000000000000000000000000000000000000000000000000000000",
            "0x000000000000000000000000bded1de43ec40d9f62c43d94d3caae4b6c03c30a"
          ],
          "data": "0x00000000000000000000000000000000000000000000003635c9adc5dea00000",
          "blockHash": "0xbad07aa36c4bf69ba9ccebc717df2e3534f909d94b12607bbf18d48fd969cf9a",
          "blockNumber": "0x9f622f",
          "blockTimestamp": "0x69b55af8",
          "transactionHash": "0xa4ce55d46fabae2b6b175c63cfc71e1a7464557a2994d0a3da3d58605fb8eb95",
          "transactionIndex": "0x112",
          "logIndex": "0x19c",
          "removed": false
        },
        {
          "address": "0x35d0186d1fd53b72996475d965c5ed171d52b986",
          "topics": [
            "0xddf252ad1be2c89b69c2b068fc378daa952ba7f163c4a11628f55a4df523b3ef",
            "0x0000000000000000000000000000000000000000000000000000000000000000",
            "0x000000000000000000000000bded1de43ec40d9f62c43d94d3caae4b6c03c30a"
          ],
          "data": "0x00000000000000000000000000000000000000000000003635c9adc5dea00000",
          "blockHash": "0xbad07aa36c4bf69ba9ccebc717df2e3534f909d94b12607bbf18d48fd969cf9a",
          "blockNumber": "0x9f622f",
          "blockTimestamp": "0x69b55af8",
          "transactionHash": "0xa4ce55d46fabae2b6b175c63cfc71e1a7464557a2994d0a3da3d58605fb8eb95",
          "transactionIndex": "0x112",
          "logIndex": "0x19d",
          "removed": false
        },
        {
          "address": "0x35d0186d1fd53b72996475d965c5ed171d52b986",
          "topics": [
            "0xddf252ad1be2c89b69c2b068fc378daa952ba7f163c4a11628f55a4df523b3ef",
            "0x0000000000000000000000000000000000000000000000000000000000000000",
            "0x000000000000000000000000bded1de43ec40d9f62c43d94d3caae4b6c03c30a"
          ],
          "data": "0x00000000000000000000000000000000000000000000003635c9adc5dea00000",
          "blockHash": "0xbad07aa36c4bf69ba9ccebc717df2e3534f909d94b12607bbf18d48fd969cf9a",
          "blockNumber": "0x9f622f",
          "blockTimestamp": "0x69b55af8",
          "transactionHash": "0xa4ce55d46fabae2b6b175c63cfc71e1a7464557a2994d0a3da3d58605fb8eb95",
          "transactionIndex": "0x112",
          "logIndex": "0x19e",
          "removed": false
        },
        {
          "address": "0x35d0186d1fd53b72996475d965c5ed171d52b986",
          "topics": [
            "0xddf252ad1be2c89b69c2b068fc378daa952ba7f163c4a11628f55a4df523b3ef",
            "0x0000000000000000000000000000000000000000000000000000000000000000",
            "0x000000000000000000000000bded1de43ec40d9f62c43d94d3caae4b6c03c30a"
          ],
          "data": "0x00000000000000000000000000000000000000000000003635c9adc5dea00000",
          "blockHash": "0xbad07aa36c4bf69ba9ccebc717df2e3534f909d94b12607bbf18d48fd969cf9a",
          "blockNumber": "0x9f622f",
          "blockTimestamp": "0x69b55af8",
          "transactionHash": "0xa4ce55d46fabae2b6b175c63cfc71e1a7464557a2994d0a3da3d58605fb8eb95",
          "transactionIndex": "0x112",
          "logIndex": "0x19f",
          "removed": false
        },
        {
          "address": "0x35d0186d1fd53b72996475d965c5ed171d52b986",
          "topics": [
            "0xddf252ad1be2c89b69c2b068fc378daa952ba7f163c4a11628f55a4df523b3ef",
            "0x0000000000000000000000000000000000000000000000000000000000000000",
            "0x000000000000000000000000bded1de43ec40d9f62c43d94d3caae4b6c03c30a"
          ],
          "data": "0x00000000000000000000000000000000000000000000003635c9adc5dea00000",
          "blockHash": "0xbad07aa36c4bf69ba9ccebc717df2e3534f909d94b12607bbf18d48fd969cf9a",
          "blockNumber": "0x9f622f",
          "blockTimestamp": "0x69b55af8",
          "transactionHash": "0xa4ce55d46fabae2b6b175c63cfc71e1a7464557a2994d0a3da3d58605fb8eb95",
          "transactionIndex": "0x112",
          "logIndex": "0x1a0",
          "removed": false
        },
        {
          "address": "0x35d0186d1fd53b72996475d965c5ed171d52b986",
          "topics": [
            "0xddf252ad1be2c89b69c2b068fc378daa952ba7f163c4a11628f55a4df523b3ef",
            "0x0000000000000000000000000000000000000000000000000000000000000000",
            "0x000000000000000000000000bded1de43ec40d9f62c43d94d3caae4b6c03c30a"
          ],
          "data": "0x00000000000000000000000000000000000000000000003635c9adc5dea00000",
          "blockHash": "0xbad07aa36c4bf69ba9ccebc717df2e3534f909d94b12607bbf18d48fd969cf9a",
          "blockNumber": "0x9f622f",
          "blockTimestamp": "0x69b55af8",
          "transactionHash": "0xa4ce55d46fabae2b6b175c63cfc71e1a7464557a2994d0a3da3d58605fb8eb95",
          "transactionIndex": "0x112",
          "logIndex": "0x1a1",
          "removed": false
        },
        {
          "address": "0x35d0186d1fd53b72996475d965c5ed171d52b986",
          "topics": [
            "0xddf252ad1be2c89b69c2b068fc378daa952ba7f163c4a11628f55a4df523b3ef",
            "0x0000000000000000000000000000000000000000000000000000000000000000",
            "0x000000000000000000000000bded1de43ec40d9f62c43d94d3caae4b6c03c30a"
          ],
          "data": "0x00000000000000000000000000000000000000000000003635c9adc5dea00000",
          "blockHash": "0xbad07aa36c4bf69ba9ccebc717df2e3534f909d94b12607bbf18d48fd969cf9a",
          "blockNumber": "0x9f622f",
          "blockTimestamp": "0x69b55af8",
          "transactionHash": "0xa4ce55d46fabae2b6b175c63cfc71e1a7464557a2994d0a3da3d58605fb8eb95",
          "transactionIndex": "0x112",
          "logIndex": "0x1a2",
          "removed": false
        },
        {
          "address": "0x35d0186d1fd53b72996475d965c5ed171d52b986",
          "topics": [
            "0xddf252ad1be2c89b69c2b068fc378daa952ba7f163c4a11628f55a4df523b3ef",
            "0x0000000000000000000000000000000000000000000000000000000000000000",
            "0x000000000000000000000000bded1de43ec40d9f62c43d94d3caae4b6c03c30a"
          ],
          "data": "0x00000000000000000000000000000000000000000000003635c9adc5dea00000",
          "blockHash": "0xbad07aa36c4bf69ba9ccebc717df2e3534f909d94b12607bbf18d48fd969cf9a",
          "blockNumber": "0x9f622f",
          "blockTimestamp": "0x69b55af8",
          "transactionHash": "0xa4ce55d46fabae2b6b175c63cfc71e1a7464557a2994d0a3da3d58605fb8eb95",
          "transactionIndex": "0x112",
          "logIndex": "0x1a3",
          "removed": false
        },
        {
          "address": "0x35d0186d1fd53b72996475d965c5ed171d52b986",
          "topics": [
            "0xddf252ad1be2c89b69c2b068fc378daa952ba7f163c4a11628f55a4df523b3ef",
            "0x0000000000000000000000000000000000000000000000000000000000000000",
            "0x000000000000000000000000bded1de43ec40d9f62c43d94d3caae4b6c03c30a"
          ],
          "data": "0x00000000000000000000000000000000000000000000003635c9adc5dea00000",
          "blockHash": "0xbad07aa36c4bf69ba9ccebc717df2e3534f909d94b12607bbf18d48fd969cf9a",
          "blockNumber": "0x9f622f",
          "blockTimestamp": "0x69b55af8",
          "transactionHash": "0xa4ce55d46fabae2b6b175c63cfc71e1a7464557a2994d0a3da3d58605fb8eb95",
          "transactionIndex": "0x112",
          "logIndex": "0x1a4",
          "removed": false
        },
        {
          "address": "0x35d0186d1fd53b72996475d965c5ed171d52b986",
          "topics": [
            "0xddf252ad1be2c89b69c2b068fc378daa952ba7f163c4a11628f55a4df523b3ef",
            "0x0000000000000000000000000000000000000000000000000000000000000000",
            "0x000000000000000000000000bded1de43ec40d9f62c43d94d3caae4b6c03c30a"
          ],
          "data": "0x00000000000000000000000000000000000000000000003635c9adc5dea00000",
          "blockHash": "0xbad07aa36c4bf69ba9ccebc717df2e3534f909d94b12607bbf18d48fd969cf9a",
          "blockNumber": "0x9f622f",
          "blockTimestamp": "0x69b55af8",
          "transactionHash": "0xa4ce55d46fabae2b6b175c63cfc71e1a7464557a2994d0a3da3d58605fb8eb95",
          "transactionIndex": "0x112",
          "logIndex": "0x1a5",
          "removed": false
        },
        {
          "address": "0x35d0186d1fd53b72996475d965c5ed171d52b986",
          "topics": [
            "0xddf252ad1be2c89b69c2b068fc378daa952ba7f163c4a11628f55a4df523b3ef",
            "0x0000000000000000000000000000000000000000000000000000000000000000",
            "0x000000000000000000000000bded1de43ec40d9f62c43d94d3caae4b6c03c30a"
          ],
          "data": "0x00000000000000000000000000000000000000000000003635c9adc5dea00000",
          "blockHash": "0xbad07aa36c4bf69ba9ccebc717df2e3534f909d94b12607bbf18d48fd969cf9a",
          "blockNumber": "0x9f622f",
          "blockTimestamp": "0x69b55af8",
          "transactionHash": "0xa4ce55d46fabae2b6b175c63cfc71e1a7464557a2994d0a3da3d58605fb8eb95",
          "transactionIndex": "0x112",
          "logIndex": "0x1a6",
          "removed": false
        },
        {
          "address": "0x35d0186d1fd53b72996475d965c5ed171d52b986",
          "topics": [
            "0xddf252ad1be2c89b69c2b068fc378daa952ba7f163c4a11628f55a4df523b3ef",
            "0x0000000000000000000000000000000000000000000000000000000000000000",
            "0x000000000000000000000000bded1de43ec40d9f62c43d94d3caae4b6c03c30a"
          ],
          "data": "0x00000000000000000000000000000000000000000000003635c9adc5dea00000",
          "blockHash": "0xbad07aa36c4bf69ba9ccebc717df2e3534f909d94b12607bbf18d48fd969cf9a",
          "blockNumber": "0x9f622f",
          "blockTimestamp": "0x69b55af8",
          "transactionHash": "0xa4ce55d46fabae2b6b175c63cfc71e1a7464557a2994d0a3da3d58605fb8eb95",
          "transactionIndex": "0x112",
          "logIndex": "0x1a7",
          "removed": false
        },
        {
          "address": "0x35d0186d1fd53b72996475d965c5ed171d52b986",
          "topics": [
            "0xddf252ad1be2c89b69c2b068fc378daa952ba7f163c4a11628f55a4df523b3ef",
            "0x0000000000000000000000000000000000000000000000000000000000000000",
            "0x000000000000000000000000bded1de43ec40d9f62c43d94d3caae4b6c03c30a"
          ],
          "data": "0x00000000000000000000000000000000000000000000003635c9adc5dea00000",
          "blockHash": "0xbad07aa36c4bf69ba9ccebc717df2e3534f909d94b12607bbf18d48fd969cf9a",
          "blockNumber": "0x9f622f",
          "blockTimestamp": "0x69b55af8",
          "transactionHash": "0xa4ce55d46fabae2b6b175c63cfc71e1a7464557a2994d0a3da3d58605fb8eb95",
          "transactionIndex": "0x112",
          "logIndex": "0x1a8",
          "removed": false
        },
        {
          "address": "0x35d0186d1fd53b72996475d965c5ed171d52b986",
          "topics": [
            "0xddf252ad1be2c89b69c2b068fc378daa952ba7f163c4a11628f55a4df523b3ef",
            "0x0000000000000000000000000000000000000000000000000000000000000000",
            "0x000000000000000000000000bded1de43ec40d9f62c43d94d3caae4b6c03c30a"
          ],
          "data": "0x00000000000000000000000000000000000000000000003635c9adc5dea00000",
          "blockHash": "0xbad07aa36c4bf69ba9ccebc717df2e3534f909d94b12607bbf18d48fd969cf9a",
          "blockNumber": "0x9f622f",
          "blockTimestamp": "0x69b55af8",
          "transactionHash": "0xa4ce55d46fabae2b6b175c63cfc71e1a7464557a2994d0a3da3d58605fb8eb95",
          "transactionIndex": "0x112",
          "logIndex": "0x1a9",
          "removed": false
        },
        {
          "address": "0x35d0186d1fd53b72996475d965c5ed171d52b986",
          "topics": [
            "0xddf252ad1be2c89b69c2b068fc378daa952ba7f163c4a11628f55a4df523b3ef",
            "0x0000000000000000000000000000000000000000000000000000000000000000",
            "0x000000000000000000000000bded1de43ec40d9f62c43d94d3caae4b6c03c30a"
          ],
          "data": "0x00000000000000000000000000000000000000000000003635c9adc5dea00000",
          "blockHash": "0xbad07aa36c4bf69ba9ccebc717df2e3534f909d94b12607bbf18d48fd969cf9a",
          "blockNumber": "0x9f622f",
          "blockTimestamp": "0x69b55af8",
          "transactionHash": "0xa4ce55d46fabae2b6b175c63cfc71e1a7464557a2994d0a3da3d58605fb8eb95",
          "transactionIndex": "0x112",
          "logIndex": "0x1aa",
          "removed": false
        },
        {
          "address": "0x35d0186d1fd53b72996475d965c5ed171d52b986",
          "topics": [
            "0xddf252ad1be2c89b69c2b068fc378daa952ba7f163c4a11628f55a4df523b3ef",
            "0x0000000000000000000000000000000000000000000000000000000000000000",
            "0x000000000000000000000000bded1de43ec40d9f62c43d94d3caae4b6c03c30a"
          ],
          "data": "0x00000000000000000000000000000000000000000000003635c9adc5dea00000",
          "blockHash": "0xbad07aa36c4bf69ba9ccebc717df2e3534f909d94b12607bbf18d48fd969cf9a",
          "blockNumber": "0x9f622f",
          "blockTimestamp": "0x69b55af8",
          "transactionHash": "0xa4ce55d46fabae2b6b175c63cfc71e1a7464557a2994d0a3da3d58605fb8eb95",
          "transactionIndex": "0x112",
          "logIndex": "0x1ab",
          "removed": false
        },
        {
          "address": "0x35d0186d1fd53b72996475d965c5ed171d52b986",
          "topics": [
            "0xddf252ad1be2c89b69c2b068fc378daa952ba7f163c4a11628f55a4df523b3ef",
            "0x0000000000000000000000000000000000000000000000000000000000000000",
            "0x000000000000000000000000bded1de43ec40d9f62c43d94d3caae4b6c03c30a"
          ],
          "data": "0x00000000000000000000000000000000000000000000003635c9adc5dea00000",
          "blockHash": "0xbad07aa36c4bf69ba9ccebc717df2e3534f909d94b12607bbf18d48fd969cf9a",
          "blockNumber": "0x9f622f",
          "blockTimestamp": "0x69b55af8",
          "transactionHash": "0xa4ce55d46fabae2b6b175c63cfc71e1a7464557a2994d0a3da3d58605fb8eb95",
          "transactionIndex": "0x112",
          "logIndex": "0x1ac",
          "removed": false
        },
        {
          "address": "0x35d0186d1fd53b72996475d965c5ed171d52b986",
          "topics": [
            "0xddf252ad1be2c89b69c2b068fc378daa952ba7f163c4a11628f55a4df523b3ef",
            "0x0000000000000000000000000000000000000000000000000000000000000000",
            "0x000000000000000000000000bded1de43ec40d9f62c43d94d3caae4b6c03c30a"
          ],
          "data": "0x00000000000000000000000000000000000000000000003635c9adc5dea00000",
          "blockHash": "0xbad07aa36c4bf69ba9ccebc717df2e3534f909d94b12607bbf18d48fd969cf9a",
          "blockNumber": "0x9f622f",
          "blockTimestamp": "0x69b55af8",
          "transactionHash": "0xa4ce55d46fabae2b6b175c63cfc71e1a7464557a2994d0a3da3d58605fb8eb95",
          "transactionIndex": "0x112",
          "logIndex": "0x1ad",
          "removed": false
        },
        {
          "address": "0x35d0186d1fd53b72996475d965c5ed171d52b986",
          "topics": [
            "0xddf252ad1be2c89b69c2b068fc378daa952ba7f163c4a11628f55a4df523b3ef",
            "0x0000000000000000000000000000000000000000000000000000000000000000",
            "0x000000000000000000000000bded1de43ec40d9f62c43d94d3caae4b6c03c30a"
          ],
          "data": "0x00000000000000000000000000000000000000000000003635c9adc5dea00000",
          "blockHash": "0xbad07aa36c4bf69ba9ccebc717df2e3534f909d94b12607bbf18d48fd969cf9a",
          "blockNumber": "0x9f622f",
          "blockTimestamp": "0x69b55af8",
          "transactionHash": "0xa4ce55d46fabae2b6b175c63cfc71e1a7464557a2994d0a3da3d58605fb8eb95",
          "transactionIndex": "0x112",
          "logIndex": "0x1ae",
          "removed": false
        },
        {
          "address": "0x35d0186d1fd53b72996475d965c5ed171d52b986",
          "topics": [
            "0xddf252ad1be2c89b69c2b068fc378daa952ba7f163c4a11628f55a4df523b3ef",
            "0x0000000000000000000000000000000000000000000000000000000000000000",
            "0x000000000000000000000000bded1de43ec40d9f62c43d94d3caae4b6c03c30a"
          ],
          "data": "0x00000000000000000000000000000000000000000000003635c9adc5dea00000",
          "blockHash": "0xbad07aa36c4bf69ba9ccebc717df2e3534f909d94b12607bbf18d48fd969cf9a",
          "blockNumber": "0x9f622f",
          "blockTimestamp": "0x69b55af8",
          "transactionHash": "0xa4ce55d46fabae2b6b175c63cfc71e1a7464557a2994d0a3da3d58605fb8eb95",
          "transactionIndex": "0x112",
          "logIndex": "0x1af",
          "removed": false
        },
        {
          "address": "0x35d0186d1fd53b72996475d965c5ed171d52b986",
          "topics": [
            "0xddf252ad1be2c89b69c2b068fc378daa952ba7f163c4a11628f55a4df523b3ef",
            "0x0000000000000000000000000000000000000000000000000000000000000000",
            "0x000000000000000000000000bded1de43ec40d9f62c43d94d3caae4b6c03c30a"
          ],
          "data": "0x00000000000000000000000000000000000000000000003635c9adc5dea00000",
          "blockHash": "0xbad07aa36c4bf69ba9ccebc717df2e3534f909d94b12607bbf18d48fd969cf9a",
          "blockNumber": "0x9f622f",
          "blockTimestamp": "0x69b55af8",
          "transactionHash": "0xa4ce55d46fabae2b6b175c63cfc71e1a7464557a2994d0a3da3d58605fb8eb95",
          "transactionIndex": "0x112",
          "logIndex": "0x1b0",
          "removed": false
        },
        {
          "address": "0x35d0186d1fd53b72996475d965c5ed171d52b986",
          "topics": [
            "0xddf252ad1be2c89b69c2b068fc378daa952ba7f163c4a11628f55a4df523b3ef",
            "0x0000000000000000000000000000000000000000000000000000000000000000",
            "0x000000000000000000000000bded1de43ec40d9f62c43d94d3caae4b6c03c30a"
          ],
          "data": "0x00000000000000000000000000000000000000000000003635c9adc5dea00000",
          "blockHash": "0xbad07aa36c4bf69ba9ccebc717df2e3534f909d94b12607bbf18d48fd969cf9a",
          "blockNumber": "0x9f622f",
          "blockTimestamp": "0x69b55af8",
          "transactionHash": "0xa4ce55d46fabae2b6b175c63cfc71e1a7464557a2994d0a3da3d58605fb8eb95",
          "transactionIndex": "0x112",
          "logIndex": "0x1b1",
          "removed": false
        },
        {
          "address": "0x35d0186d1fd53b72996475d965c5ed171d52b986",
          "topics": [
            "0xddf252ad1be2c89b69c2b068fc378daa952ba7f163c4a11628f55a4df523b3ef",
            "0x0000000000000000000000000000000000000000000000000000000000000000",
            "0x000000000000000000000000bded1de43ec40d9f62c43d94d3caae4b6c03c30a"
          ],
          "data": "0x00000000000000000000000000000000000000000000003635c9adc5dea00000",
          "blockHash": "0xbad07aa36c4bf69ba9ccebc717df2e3534f909d94b12607bbf18d48fd969cf9a",
          "blockNumber": "0x9f622f",
          "blockTimestamp": "0x69b55af8",
          "transactionHash": "0xa4ce55d46fabae2b6b175c63cfc71e1a7464557a2994d0a3da3d58605fb8eb95",
          "transactionIndex": "0x112",
          "logIndex": "0x1b2",
          "removed": false
        },
        {
          "address": "0x35d0186d1fd53b72996475d965c5ed171d52b986",
          "topics": [
            "0xddf252ad1be2c89b69c2b068fc378daa952ba7f163c4a11628f55a4df523b3ef",
            "0x0000000000000000000000000000000000000000000000000000000000000000",
            "0x000000000000000000000000bded1de43ec40d9f62c43d94d3caae4b6c03c30a"
          ],
          "data": "0x00000000000000000000000000000000000000000000003635c9adc5dea00000",
          "blockHash": "0xbad07aa36c4bf69ba9ccebc717df2e3534f909d94b12607bbf18d48fd969cf9a",
          "blockNumber": "0x9f622f",
          "blockTimestamp": "0x69b55af8",
          "transactionHash": "0xa4ce55d46fabae2b6b175c63cfc71e1a7464557a2994d0a3da3d58605fb8eb95",
          "transactionIndex": "0x112",
          "logIndex": "0x1b3",
          "removed": false
        },
        {
          "address": "0x35d0186d1fd53b72996475d965c5ed171d52b986",
          "topics": [
            "0xddf252ad1be2c89b69c2b068fc378daa952ba7f163c4a11628f55a4df523b3ef",
            "0x0000000000000000000000000000000000000000000000000000000000000000",
            "0x000000000000000000000000bded1de43ec40d9f62c43d94d3caae4b6c03c30a"
          ],
          "data": "0x00000000000000000000000000000000000000000000003635c9adc5dea00000",
          "blockHash": "0xbad07aa36c4bf69ba9ccebc717df2e3534f909d94b12607bbf18d48fd969cf9a",
          "blockNumber": "0x9f622f",
          "blockTimestamp": "0x69b55af8",
          "transactionHash": "0xa4ce55d46fabae2b6b175c63cfc71e1a7464557a2994d0a3da3d58605fb8eb95",
          "transactionIndex": "0x112",
          "logIndex": "0x1b4",
          "removed": false
        },
        {
          "address": "0x35d0186d1fd53b72996475d965c5ed171d52b986",
          "topics": [
            "0xddf252ad1be2c89b69c2b068fc378daa952ba7f163c4a11628f55a4df523b3ef",
            "0x0000000000000000000000000000000000000000000000000000000000000000",
            "0x000000000000000000000000bded1de43ec40d9f62c43d94d3caae4b6c03c30a"
          ],
          "data": "0x00000000000000000000000000000000000000000000003635c9adc5dea00000",
          "blockHash": "0xbad07aa36c4bf69ba9ccebc717df2e3534f909d94b12607bbf18d48fd969cf9a",
          "blockNumber": "0x9f622f",
          "blockTimestamp": "0x69b55af8",
          "transactionHash": "0xa4ce55d46fabae2b6b175c63cfc71e1a7464557a2994d0a3da3d58605fb8eb95",
          "transactionIndex": "0x112",
          "logIndex": "0x1b5",
          "removed": false
        },
        {
          "address": "0x35d0186d1fd53b72996475d965c5ed171d52b986",
          "topics": [
            "0xddf252ad1be2c89b69c2b068fc378daa952ba7f163c4a11628f55a4df523b3ef",
            "0x0000000000000000000000000000000000000000000000000000000000000000",
            "0x000000000000000000000000bded1de43ec40d9f62c43d94d3caae4b6c03c30a"
          ],
          "data": "0x00000000000000000000000000000000000000000000003635c9adc5dea00000",
          "blockHash": "0xbad07aa36c4bf69ba9ccebc717df2e3534f909d94b12607bbf18d48fd969cf9a",
          "blockNumber": "0x9f622f",
          "blockTimestamp": "0x69b55af8",
          "transactionHash": "0xa4ce55d46fabae2b6b175c63cfc71e1a7464557a2994d0a3da3d58605fb8eb95",
          "transactionIndex": "0x112",
          "logIndex": "0x1b6",
          "removed": false
        },
        {
          "address": "0x35d0186d1fd53b72996475d965c5ed171d52b986",
          "topics": [
            "0xddf252ad1be2c89b69c2b068fc378daa952ba7f163c4a11628f55a4df523b3ef",
            "0x0000000000000000000000000000000000000000000000000000000000000000",
            "0x000000000000000000000000bded1de43ec40d9f62c43d94d3caae4b6c03c30a"
          ],
          "data": "0x00000000000000000000000000000000000000000000003635c9adc5dea00000",
          "blockHash": "0xbad07aa36c4bf69ba9ccebc717df2e3534f909d94b12607bbf18d48fd969cf9a",
          "blockNumber": "0x9f622f",
          "blockTimestamp": "0x69b55af8",
          "transactionHash": "0xa4ce55d46fabae2b6b175c63cfc71e1a7464557a2994d0a3da3d58605fb8eb95",
          "transactionIndex": "0x112",
          "logIndex": "0x1b7",
          "removed": false
        },
        {
          "address": "0x35d0186d1fd53b72996475d965c5ed171d52b986",
          "topics": [
            "0xddf252ad1be2c89b69c2b068fc378daa952ba7f163c4a11628f55a4df523b3ef",
            "0x0000000000000000000000000000000000000000000000000000000000000000",
            "0x000000000000000000000000bded1de43ec40d9f62c43d94d3caae4b6c03c30a"
          ],
          "data": "0x00000000000000000000000000000000000000000000003635c9adc5dea00000",
          "blockHash": "0xbad07aa36c4bf69ba9ccebc717df2e3534f909d94b12607bbf18d48fd969cf9a",
          "blockNumber": "0x9f622f",
          "blockTimestamp": "0x69b55af8",
          "transactionHash": "0xa4ce55d46fabae2b6b175c63cfc71e1a7464557a2994d0a3da3d58605fb8eb95",
          "transactionIndex": "0x112",
          "logIndex": "0x1b8",
          "removed": false
        },
        {
          "address": "0x35d0186d1fd53b72996475d965c5ed171d52b986",
          "topics": [
            "0xddf252ad1be2c89b69c2b068fc378daa952ba7f163c4a11628f55a4df523b3ef",
            "0x0000000000000000000000000000000000000000000000000000000000000000",
            "0x000000000000000000000000bded1de43ec40d9f62c43d94d3caae4b6c03c30a"
          ],
          "data": "0x00000000000000000000000000000000000000000000003635c9adc5dea00000",
          "blockHash": "0xbad07aa36c4bf69ba9ccebc717df2e3534f909d94b12607bbf18d48fd969cf9a",
          "blockNumber": "0x9f622f",
          "blockTimestamp": "0x69b55af8",
          "transactionHash": "0xa4ce55d46fabae2b6b175c63cfc71e1a7464557a2994d0a3da3d58605fb8eb95",
          "transactionIndex": "0x112",
          "logIndex": "0x1b9",
          "removed": false
        },
        {
          "address": "0x35d0186d1fd53b72996475d965c5ed171d52b986",
          "topics": [
            "0xddf252ad1be2c89b69c2b068fc378daa952ba7f163c4a11628f55a4df523b3ef",
            "0x0000000000000000000000000000000000000000000000000000000000000000",
            "0x000000000000000000000000bded1de43ec40d9f62c43d94d3caae4b6c03c30a"
          ],
          "data": "0x00000000000000000000000000000000000000000000003635c9adc5dea00000",
          "blockHash": "0xbad07aa36c4bf69ba9ccebc717df2e3534f909d94b12607bbf18d48fd969cf9a",
          "blockNumber": "0x9f622f",
          "blockTimestamp": "0x69b55af8",
          "transactionHash": "0xa4ce55d46fabae2b6b175c63cfc71e1a7464557a2994d0a3da3d58605fb8eb95",
          "transactionIndex": "0x112",
          "logIndex": "0x1ba",
          "removed": false
        },
        {
          "address": "0x35d0186d1fd53b72996475d965c5ed171d52b986",
          "topics": [
            "0xddf252ad1be2c89b69c2b068fc378daa952ba7f163c4a11628f55a4df523b3ef",
            "0x0000000000000000000000000000000000000000000000000000000000000000",
            "0x000000000000000000000000bded1de43ec40d9f62c43d94d3caae4b6c03c30a"
          ],
          "data": "0x00000000000000000000000000000000000000000000003635c9adc5dea00000",
          "blockHash": "0xbad07aa36c4bf69ba9ccebc717df2e3534f909d94b12607bbf18d48fd969cf9a",
          "blockNumber": "0x9f622f",
          "blockTimestamp": "0x69b55af8",
          "transactionHash": "0xa4ce55d46fabae2b6b175c63cfc71e1a7464557a2994d0a3da3d58605fb8eb95",
          "transactionIndex": "0x112",
          "logIndex": "0x1bb",
          "removed": false
        },
        {
          "address": "0x35d0186d1fd53b72996475d965c5ed171d52b986",
          "topics": [
            "0xddf252ad1be2c89b69c2b068fc378daa952ba7f163c4a11628f55a4df523b3ef",
            "0x0000000000000000000000000000000000000000000000000000000000000000",
            "0x000000000000000000000000bded1de43ec40d9f62c43d94d3caae4b6c03c30a"
          ],
          "data": "0x00000000000000000000000000000000000000000000003635c9adc5dea00000",
          "blockHash": "0xbad07aa36c4bf69ba9ccebc717df2e3534f909d94b12607bbf18d48fd969cf9a",
          "blockNumber": "0x9f622f",
          "blockTimestamp": "0x69b55af8",
          "transactionHash": "0xa4ce55d46fabae2b6b175c63cfc71e1a7464557a2994d0a3da3d58605fb8eb95",
          "transactionIndex": "0x112",
          "logIndex": "0x1bc",
          "removed": false
        },
        {
          "address": "0x35d0186d1fd53b72996475d965c5ed171d52b986",
          "topics": [
            "0xddf252ad1be2c89b69c2b068fc378daa952ba7f163c4a11628f55a4df523b3ef",
            "0x0000000000000000000000000000000000000000000000000000000000000000",
            "0x000000000000000000000000bded1de43ec40d9f62c43d94d3caae4b6c03c30a"
          ],
          "data": "0x00000000000000000000000000000000000000000000003635c9adc5dea00000",
          "blockHash": "0xbad07aa36c4bf69ba9ccebc717df2e3534f909d94b12607bbf18d48fd969cf9a",
          "blockNumber": "0x9f622f",
          "blockTimestamp": "0x69b55af8",
          "transactionHash": "0xa4ce55d46fabae2b6b175c63cfc71e1a7464557a2994d0a3da3d58605fb8eb95",
          "transactionIndex": "0x112",
          "logIndex": "0x1bd",
          "removed": false
        },
        {
          "address": "0x35d0186d1fd53b72996475d965c5ed171d52b986",
          "topics": [
            "0xddf252ad1be2c89b69c2b068fc378daa952ba7f163c4a11628f55a4df523b3ef",
            "0x0000000000000000000000000000000000000000000000000000000000000000",
            "0x000000000000000000000000bded1de43ec40d9f62c43d94d3caae4b6c03c30a"
          ],
          "data": "0x00000000000000000000000000000000000000000000003635c9adc5dea00000",
          "blockHash": "0xbad07aa36c4bf69ba9ccebc717df2e3534f909d94b12607bbf18d48fd969cf9a",
          "blockNumber": "0x9f622f",
          "blockTimestamp": "0x69b55af8",
          "transactionHash": "0xa4ce55d46fabae2b6b175c63cfc71e1a7464557a2994d0a3da3d58605fb8eb95",
          "transactionIndex": "0x112",
          "logIndex": "0x1be",
          "removed": false
        },
        {
          "address": "0x35d0186d1fd53b72996475d965c5ed171d52b986",
          "topics": [
            "0xddf252ad1be2c89b69c2b068fc378daa952ba7f163c4a11628f55a4df523b3ef",
            "0x0000000000000000000000000000000000000000000000000000000000000000",
            "0x000000000000000000000000bded1de43ec40d9f62c43d94d3caae4b6c03c30a"
          ],
          "data": "0x00000000000000000000000000000000000000000000003635c9adc5dea00000",
          "blockHash": "0xbad07aa36c4bf69ba9ccebc717df2e3534f909d94b12607bbf18d48fd969cf9a",
          "blockNumber": "0x9f622f",
          "blockTimestamp": "0x69b55af8",
          "transactionHash": "0xa4ce55d46fabae2b6b175c63cfc71e1a7464557a2994d0a3da3d58605fb8eb95",
          "transactionIndex": "0x112",
          "logIndex": "0x1bf",
          "removed": false
        },
        {
          "address": "0x35d0186d1fd53b72996475d965c5ed171d52b986",
          "topics": [
            "0xddf252ad1be2c89b69c2b068fc378daa952ba7f163c4a11628f55a4df523b3ef",
            "0x0000000000000000000000000000000000000000000000000000000000000000",
            "0x000000000000000000000000bded1de43ec40d9f62c43d94d3caae4b6c03c30a"
          ],
          "data": "0x00000000000000000000000000000000000000000000003635c9adc5dea00000",
          "blockHash": "0xbad07aa36c4bf69ba9ccebc717df2e3534f909d94b12607bbf18d48fd969cf9a",
          "blockNumber": "0x9f622f",
          "blockTimestamp": "0x69b55af8",
          "transactionHash": "0xa4ce55d46fabae2b6b175c63cfc71e1a7464557a2994d0a3da3d58605fb8eb95",
          "transactionIndex": "0x112",
          "logIndex": "0x1c0",
          "removed": false
        },
        {
          "address": "0x35d0186d1fd53b72996475d965c5ed171d52b986",
          "topics": [
            "0xddf252ad1be2c89b69c2b068fc378daa952ba7f163c4a11628f55a4df523b3ef",
            "0x0000000000000000000000000000000000000000000000000000000000000000",
            "0x000000000000000000000000bded1de43ec40d9f62c43d94d3caae4b6c03c30a"
          ],
          "data": "0x00000000000000000000000000000000000000000000003635c9adc5dea00000",
          "blockHash": "0xbad07aa36c4bf69ba9ccebc717df2e3534f909d94b12607bbf18d48fd969cf9a",
          "blockNumber": "0x9f622f",
          "blockTimestamp": "0x69b55af8",
          "transactionHash": "0xa4ce55d46fabae2b6b175c63cfc71e1a7464557a2994d0a3da3d58605fb8eb95",
          "transactionIndex": "0x112",
          "logIndex": "0x1c1",
          "removed": false
        },
        {
          "address": "0x35d0186d1fd53b72996475d965c5ed171d52b986",
          "topics": [
            "0xddf252ad1be2c89b69c2b068fc378daa952ba7f163c4a11628f55a4df523b3ef",
            "0x0000000000000000000000000000000000000000000000000000000000000000",
            "0x000000000000000000000000bded1de43ec40d9f62c43d94d3caae4b6c03c30a"
          ],
          "data": "0x00000000000000000000000000000000000000000000003635c9adc5dea00000",
          "blockHash": "0xbad07aa36c4bf69ba9ccebc717df2e3534f909d94b12607bbf18d48fd969cf9a",
          "blockNumber": "0x9f622f",
          "blockTimestamp": "0x69b55af8",
          "transactionHash": "0xa4ce55d46fabae2b6b175c63cfc71e1a7464557a2994d0a3da3d58605fb8eb95",
          "transactionIndex": "0x112",
          "logIndex": "0x1c2",
          "removed": false
        },
        {
          "address": "0x35d0186d1fd53b72996475d965c5ed171d52b986",
          "topics": [
            "0xddf252ad1be2c89b69c2b068fc378daa952ba7f163c4a11628f55a4df523b3ef",
            "0x0000000000000000000000000000000000000000000000000000000000000000",
            "0x000000000000000000000000bded1de43ec40d9f62c43d94d3caae4b6c03c30a"
          ],
          "data": "0x00000000000000000000000000000000000000000000003635c9adc5dea00000",
          "blockHash": "0xbad07aa36c4bf69ba9ccebc717df2e3534f909d94b12607bbf18d48fd969cf9a",
          "blockNumber": "0x9f622f",
          "blockTimestamp": "0x69b55af8",
          "transactionHash": "0xa4ce55d46fabae2b6b175c63cfc71e1a7464557a2994d0a3da3d58605fb8eb95",
          "transactionIndex": "0x112",
          "logIndex": "0x1c3",
          "removed": false
        },
        {
          "address": "0x35d0186d1fd53b72996475d965c5ed171d52b986",
          "topics": [
            "0xddf252ad1be2c89b69c2b068fc378daa952ba7f163c4a11628f55a4df523b3ef",
            "0x0000000000000000000000000000000000000000000000000000000000000000",
            "0x000000000000000000000000bded1de43ec40d9f62c43d94d3caae4b6c03c30a"
          ],
          "data": "0x00000000000000000000000000000000000000000000003635c9adc5dea00000",
          "blockHash": "0xbad07aa36c4bf69ba9ccebc717df2e3534f909d94b12607bbf18d48fd969cf9a",
          "blockNumber": "0x9f622f",
          "blockTimestamp": "0x69b55af8",
          "transactionHash": "0xa4ce55d46fabae2b6b175c63cfc71e1a7464557a2994d0a3da3d58605fb8eb95",
          "transactionIndex": "0x112",
          "logIndex": "0x1c4",
          "removed": false
        },
        {
          "address": "0x35d0186d1fd53b72996475d965c5ed171d52b986",
          "topics": [
            "0xddf252ad1be2c89b69c2b068fc378daa952ba7f163c4a11628f55a4df523b3ef",
            "0x0000000000000000000000000000000000000000000000000000000000000000",
            "0x000000000000000000000000bded1de43ec40d9f62c43d94d3caae4b6c03c30a"
          ],
          "data": "0x00000000000000000000000000000000000000000000003635c9adc5dea00000",
          "blockHash": "0xbad07aa36c4bf69ba9ccebc717df2e3534f909d94b12607bbf18d48fd969cf9a",
          "blockNumber": "0x9f622f",
          "blockTimestamp": "0x69b55af8",
          "transactionHash": "0xa4ce55d46fabae2b6b175c63cfc71e1a7464557a2994d0a3da3d58605fb8eb95",
          "transactionIndex": "0x112",
          "logIndex": "0x1c5",
          "removed": false
        },
        {
          "address": "0x35d0186d1fd53b72996475d965c5ed171d52b986",
          "topics": [
            "0xddf252ad1be2c89b69c2b068fc378daa952ba7f163c4a11628f55a4df523b3ef",
            "0x0000000000000000000000000000000000000000000000000000000000000000",
            "0x000000000000000000000000bded1de43ec40d9f62c43d94d3caae4b6c03c30a"
          ],
          "data": "0x00000000000000000000000000000000000000000000003635c9adc5dea00000",
          "blockHash": "0xbad07aa36c4bf69ba9ccebc717df2e3534f909d94b12607bbf18d48fd969cf9a",
          "blockNumber": "0x9f622f",
          "blockTimestamp": "0x69b55af8",
          "transactionHash": "0xa4ce55d46fabae2b6b175c63cfc71e1a7464557a2994d0a3da3d58605fb8eb95",
          "transactionIndex": "0x112",
          "logIndex": "0x1c6",
          "removed": false
        },
        {
          "address": "0x35d0186d1fd53b72996475d965c5ed171d52b986",
          "topics": [
            "0xddf252ad1be2c89b69c2b068fc378daa952ba7f163c4a11628f55a4df523b3ef",
            "0x0000000000000000000000000000000000000000000000000000000000000000",
            "0x000000000000000000000000bded1de43ec40d9f62c43d94d3caae4b6c03c30a"
          ],
          "data": "0x00000000000000000000000000000000000000000000003635c9adc5dea00000",
          "blockHash": "0xbad07aa36c4bf69ba9ccebc717df2e3534f909d94b12607bbf18d48fd969cf9a",
          "blockNumber": "0x9f622f",
          "blockTimestamp": "0x69b55af8",
          "transactionHash": "0xa4ce55d46fabae2b6b175c63cfc71e1a7464557a2994d0a3da3d58605fb8eb95",
          "transactionIndex": "0x112",
          "logIndex": "0x1c7",
          "removed": false
        },
        {
          "address": "0x35d0186d1fd53b72996475d965c5ed171d52b986",
          "topics": [
            "0xddf252ad1be2c89b69c2b068fc378daa952ba7f163c4a11628f55a4df523b3ef",
            "0x0000000000000000000000000000000000000000000000000000000000000000",
            "0x000000000000000000000000bded1de43ec40d9f62c43d94d3caae4b6c03c30a"
          ],
          "data": "0x00000000000000000000000000000000000000000000003635c9adc5dea00000",
          "blockHash": "0xbad07aa36c4bf69ba9ccebc717df2e3534f909d94b12607bbf18d48fd969cf9a",
          "blockNumber": "0x9f622f",
          "blockTimestamp": "0x69b55af8",
          "transactionHash": "0xa4ce55d46fabae2b6b175c63cfc71e1a7464557a2994d0a3da3d58605fb8eb95",
          "transactionIndex": "0x112",
          "logIndex": "0x1c8",
          "removed": false
        },
        {
          "address": "0x35d0186d1fd53b72996475d965c5ed171d52b986",
          "topics": [
            "0xddf252ad1be2c89b69c2b068fc378daa952ba7f163c4a11628f55a4df523b3ef",
            "0x0000000000000000000000000000000000000000000000000000000000000000",
            "0x000000000000000000000000bded1de43ec40d9f62c43d94d3caae4b6c03c30a"
          ],
          "data": "0x00000000000000000000000000000000000000000000003635c9adc5dea00000",
          "blockHash": "0xbad07aa36c4bf69ba9ccebc717df2e3534f909d94b12607bbf18d48fd969cf9a",
          "blockNumber": "0x9f622f",
          "blockTimestamp": "0x69b55af8",
          "transactionHash": "0xa4ce55d46fabae2b6b175c63cfc71e1a7464557a2994d0a3da3d58605fb8eb95",
          "transactionIndex": "0x112",
          "logIndex": "0x1c9",
          "removed": false
        },
        {
          "address": "0x35d0186d1fd53b72996475d965c5ed171d52b986",
          "topics": [
            "0xddf252ad1be2c89b69c2b068fc378daa952ba7f163c4a11628f55a4df523b3ef",
            "0x0000000000000000000000000000000000000000000000000000000000000000",
            "0x000000000000000000000000bded1de43ec40d9f62c43d94d3caae4b6c03c30a"
          ],
          "data": "0x00000000000000000000000000000000000000000000003635c9adc5dea00000",
          "blockHash": "0xbad07aa36c4bf69ba9ccebc717df2e3534f909d94b12607bbf18d48fd969cf9a",
          "blockNumber": "0x9f622f",
          "blockTimestamp": "0x69b55af8",
          "transactionHash": "0xa4ce55d46fabae2b6b175c63cfc71e1a7464557a2994d0a3da3d58605fb8eb95",
          "transactionIndex": "0x112",
          "logIndex": "0x1ca",
          "removed": false
        },
        {
          "address": "0x35d0186d1fd53b72996475d965c5ed171d52b986",
          "topics": [
            "0xddf252ad1be2c89b69c2b068fc378daa952ba7f163c4a11628f55a4df523b3ef",
            "0x0000000000000000000000000000000000000000000000000000000000000000",
            "0x000000000000000000000000bded1de43ec40d9f62c43d94d3caae4b6c03c30a"
          ],
          "data": "0x00000000000000000000000000000000000000000000003635c9adc5dea00000",
          "blockHash": "0xbad07aa36c4bf69ba9ccebc717df2e3534f909d94b12607bbf18d48fd969cf9a",
          "blockNumber": "0x9f622f",
          "blockTimestamp": "0x69b55af8",
          "transactionHash": "0xa4ce55d46fabae2b6b175c63cfc71e1a7464557a2994d0a3da3d58605fb8eb95",
          "transactionIndex": "0x112",
          "logIndex": "0x1cb",
          "removed": false
        },
        {
          "address": "0x35d0186d1fd53b72996475d965c5ed171d52b986",
          "topics": [
            "0xddf252ad1be2c89b69c2b068fc378daa952ba7f163c4a11628f55a4df523b3ef",
            "0x0000000000000000000000000000000000000000000000000000000000000000",
            "0x000000000000000000000000bded1de43ec40d9f62c43d94d3caae4b6c03c30a"
          ],
          "data": "0x00000000000000000000000000000000000000000000003635c9adc5dea00000",
          "blockHash": "0xbad07aa36c4bf69ba9ccebc717df2e3534f909d94b12607bbf18d48fd969cf9a",
          "blockNumber": "0x9f622f",
          "blockTimestamp": "0x69b55af8",
          "transactionHash": "0xa4ce55d46fabae2b6b175c63cfc71e1a7464557a2994d0a3da3d58605fb8eb95",
          "transactionIndex": "0x112",
          "logIndex": "0x1cc",
          "removed": false
        },
        {
          "address": "0x35d0186d1fd53b72996475d965c5ed171d52b986",
          "topics": [
            "0xddf252ad1be2c89b69c2b068fc378daa952ba7f163c4a11628f55a4df523b3ef",
            "0x0000000000000000000000000000000000000000000000000000000000000000",
            "0x000000000000000000000000bded1de43ec40d9f62c43d94d3caae4b6c03c30a"
          ],
          "data": "0x00000000000000000000000000000000000000000000003635c9adc5dea00000",
          "blockHash": "0xbad07aa36c4bf69ba9ccebc717df2e3534f909d94b12607bbf18d48fd969cf9a",
          "blockNumber": "0x9f622f",
          "blockTimestamp": "0x69b55af8",
          "transactionHash": "0xa4ce55d46fabae2b6b175c63cfc71e1a7464557a2994d0a3da3d58605fb8eb95",
          "transactionIndex": "0x112",
          "logIndex": "0x1cd",
          "removed": false
        },
        {
          "address": "0x35d0186d1fd53b72996475d965c5ed171d52b986",
          "topics": [
            "0xddf252ad1be2c89b69c2b068fc378daa952ba7f163c4a11628f55a4df523b3ef",
            "0x0000000000000000000000000000000000000000000000000000000000000000",
            "0x000000000000000000000000bded1de43ec40d9f62c43d94d3caae4b6c03c30a"
          ],
          "data": "0x00000000000000000000000000000000000000000000003635c9adc5dea00000",
          "blockHash": "0xbad07aa36c4bf69ba9ccebc717df2e3534f909d94b12607bbf18d48fd969cf9a",
          "blockNumber": "0x9f622f",
          "blockTimestamp": "0x69b55af8",
          "transactionHash": "0xa4ce55d46fabae2b6b175c63cfc71e1a7464557a2994d0a3da3d58605fb8eb95",
          "transactionIndex": "0x112",
          "logIndex": "0x1ce",
          "removed": false
        },
        {
          "address": "0x35d0186d1fd53b72996475d965c5ed171d52b986",
          "topics": [
            "0xddf252ad1be2c89b69c2b068fc378daa952ba7f163c4a11628f55a4df523b3ef",
            "0x0000000000000000000000000000000000000000000000000000000000000000",
            "0x000000000000000000000000bded1de43ec40d9f62c43d94d3caae4b6c03c30a"
          ],
          "data": "0x00000000000000000000000000000000000000000000003635c9adc5dea00000",
          "blockHash": "0xbad07aa36c4bf69ba9ccebc717df2e3534f909d94b12607bbf18d48fd969cf9a",
          "blockNumber": "0x9f622f",
          "blockTimestamp": "0x69b55af8",
          "transactionHash": "0xa4ce55d46fabae2b6b175c63cfc71e1a7464557a2994d0a3da3d58605fb8eb95",
          "transactionIndex": "0x112",
          "logIndex": "0x1cf",
          "removed": false
        },
        {
          "address": "0x35d0186d1fd53b72996475d965c5ed171d52b986",
          "topics": [
            "0xddf252ad1be2c89b69c2b068fc378daa952ba7f163c4a11628f55a4df523b3ef",
            "0x0000000000000000000000000000000000000000000000000000000000000000",
            "0x000000000000000000000000bded1de43ec40d9f62c43d94d3caae4b6c03c30a"
          ],
          "data": "0x00000000000000000000000000000000000000000000003635c9adc5dea00000",
          "blockHash": "0xbad07aa36c4bf69ba9ccebc717df2e3534f909d94b12607bbf18d48fd969cf9a",
          "blockNumber": "0x9f622f",
          "blockTimestamp": "0x69b55af8",
          "transactionHash": "0xa4ce55d46fabae2b6b175c63cfc71e1a7464557a2994d0a3da3d58605fb8eb95",
          "transactionIndex": "0x112",
          "logIndex": "0x1d0",
          "removed": false
        },
        {
          "address": "0x35d0186d1fd53b72996475d965c5ed171d52b986",
          "topics": [
            "0xddf252ad1be2c89b69c2b068fc378daa952ba7f163c4a11628f55a4df523b3ef",
            "0x0000000000000000000000000000000000000000000000000000000000000000",
            "0x000000000000000000000000bded1de43ec40d9f62c43d94d3caae4b6c03c30a"
          ],
          "data": "0x00000000000000000000000000000000000000000000003635c9adc5dea00000",
          "blockHash": "0xbad07aa36c4bf69ba9ccebc717df2e3534f909d94b12607bbf18d48fd969cf9a",
          "blockNumber": "0x9f622f",
          "blockTimestamp": "0x69b55af8",
          "transactionHash": "0xa4ce55d46fabae2b6b175c63cfc71e1a7464557a2994d0a3da3d58605fb8eb95",
          "transactionIndex": "0x112",
          "logIndex": "0x1d1",
          "removed": false
        },
        {
          "address": "0x35d0186d1fd53b72996475d965c5ed171d52b986",
          "topics": [
            "0xddf252ad1be2c89b69c2b068fc378daa952ba7f163c4a11628f55a4df523b3ef",
            "0x0000000000000000000000000000000000000000000000000000000000000000",
            "0x000000000000000000000000bded1de43ec40d9f62c43d94d3caae4b6c03c30a"
          ],
          "data": "0x00000000000000000000000000000000000000000000003635c9adc5dea00000",
          "blockHash": "0xbad07aa36c4bf69ba9ccebc717df2e3534f909d94b12607bbf18d48fd969cf9a",
          "blockNumber": "0x9f622f",
          "blockTimestamp": "0x69b55af8",
          "transactionHash": "0xa4ce55d46fabae2b6b175c63cfc71e1a7464557a2994d0a3da3d58605fb8eb95",
          "transactionIndex": "0x112",
          "logIndex": "0x1d2",
          "removed": false
        },
        {
          "address": "0x35d0186d1fd53b72996475d965c5ed171d52b986",
          "topics": [
            "0xddf252ad1be2c89b69c2b068fc378daa952ba7f163c4a11628f55a4df523b3ef",
            "0x0000000000000000000000000000000000000000000000000000000000000000",
            "0x000000000000000000000000bded1de43ec40d9f62c43d94d3caae4b6c03c30a"
          ],
          "data": "0x00000000000000000000000000000000000000000000003635c9adc5dea00000",
          "blockHash": "0xbad07aa36c4bf69ba9ccebc717df2e3534f909d94b12607bbf18d48fd969cf9a",
          "blockNumber": "0x9f622f",
          "blockTimestamp": "0x69b55af8",
          "transactionHash": "0xa4ce55d46fabae2b6b175c63cfc71e1a7464557a2994d0a3da3d58605fb8eb95",
          "transactionIndex": "0x112",
          "logIndex": "0x1d3",
          "removed": false
        },
        {
          "address": "0x35d0186d1fd53b72996475d965c5ed171d52b986",
          "topics": [
            "0xddf252ad1be2c89b69c2b068fc378daa952ba7f163c4a11628f55a4df523b3ef",
            "0x0000000000000000000000000000000000000000000000000000000000000000",
            "0x000000000000000000000000bded1de43ec40d9f62c43d94d3caae4b6c03c30a"
          ],
          "data": "0x00000000000000000000000000000000000000000000003635c9adc5dea00000",
          "blockHash": "0xbad07aa36c4bf69ba9ccebc717df2e3534f909d94b12607bbf18d48fd969cf9a",
          "blockNumber": "0x9f622f",
          "blockTimestamp": "0x69b55af8",
          "transactionHash": "0xa4ce55d46fabae2b6b175c63cfc71e1a7464557a2994d0a3da3d58605fb8eb95",
          "transactionIndex": "0x112",
          "logIndex": "0x1d4",
          "removed": false
        },
        {
          "address": "0x35d0186d1fd53b72996475d965c5ed171d52b986",
          "topics": [
            "0xddf252ad1be2c89b69c2b068fc378daa952ba7f163c4a11628f55a4df523b3ef",
            "0x0000000000000000000000000000000000000000000000000000000000000000",
            "0x000000000000000000000000bded1de43ec40d9f62c43d94d3caae4b6c03c30a"
          ],
          "data": "0x00000000000000000000000000000000000000000000003635c9adc5dea00000",
          "blockHash": "0xbad07aa36c4bf69ba9ccebc717df2e3534f909d94b12607bbf18d48fd969cf9a",
          "blockNumber": "0x9f622f",
          "blockTimestamp": "0x69b55af8",
          "transactionHash": "0xa4ce55d46fabae2b6b175c63cfc71e1a7464557a2994d0a3da3d58605fb8eb95",
          "transactionIndex": "0x112",
          "logIndex": "0x1d5",
          "removed": false
        },
        {
          "address": "0x35d0186d1fd53b72996475d965c5ed171d52b986",
          "topics": [
            "0xddf252ad1be2c89b69c2b068fc378daa952ba7f163c4a11628f55a4df523b3ef",
            "0x0000000000000000000000000000000000000000000000000000000000000000",
            "0x000000000000000000000000bded1de43ec40d9f62c43d94d3caae4b6c03c30a"
          ],
          "data": "0x00000000000000000000000000000000000000000000003635c9adc5dea00000",
          "blockHash": "0xbad07aa36c4bf69ba9ccebc717df2e3534f909d94b12607bbf18d48fd969cf9a",
          "blockNumber": "0x9f622f",
          "blockTimestamp": "0x69b55af8",
          "transactionHash": "0xa4ce55d46fabae2b6b175c63cfc71e1a7464557a2994d0a3da3d58605fb8eb95",
          "transactionIndex": "0x112",
          "logIndex": "0x1d6",
          "removed": false
        },
        {
          "address": "0x35d0186d1fd53b72996475d965c5ed171d52b986",
          "topics": [
            "0xddf252ad1be2c89b69c2b068fc378daa952ba7f163c4a11628f55a4df523b3ef",
            "0x0000000000000000000000000000000000000000000000000000000000000000",
            "0x000000000000000000000000bded1de43ec40d9f62c43d94d3caae4b6c03c30a"
          ],
          "data": "0x00000000000000000000000000000000000000000000003635c9adc5dea00000",
          "blockHash": "0xbad07aa36c4bf69ba9ccebc717df2e3534f909d94b12607bbf18d48fd969cf9a",
          "blockNumber": "0x9f622f",
          "blockTimestamp": "0x69b55af8",
          "transactionHash": "0xa4ce55d46fabae2b6b175c63cfc71e1a7464557a2994d0a3da3d58605fb8eb95",
          "transactionIndex": "0x112",
          "logIndex": "0x1d7",
          "removed": false
        },
        {
          "address": "0x35d0186d1fd53b72996475d965c5ed171d52b986",
          "topics": [
            "0xddf252ad1be2c89b69c2b068fc378daa952ba7f163c4a11628f55a4df523b3ef",
            "0x0000000000000000000000000000000000000000000000000000000000000000",
            "0x000000000000000000000000bded1de43ec40d9f62c43d94d3caae4b6c03c30a"
          ],
          "data": "0x00000000000000000000000000000000000000000000003635c9adc5dea00000",
          "blockHash": "0xbad07aa36c4bf69ba9ccebc717df2e3534f909d94b12607bbf18d48fd969cf9a",
          "blockNumber": "0x9f622f",
          "blockTimestamp": "0x69b55af8",
          "transactionHash": "0xa4ce55d46fabae2b6b175c63cfc71e1a7464557a2994d0a3da3d58605fb8eb95",
          "transactionIndex": "0x112",
          "logIndex": "0x1d8",
          "removed": false
        },
        {
          "address": "0x35d0186d1fd53b72996475d965c5ed171d52b986",
          "topics": [
            "0xddf252ad1be2c89b69c2b068fc378daa952ba7f163c4a11628f55a4df523b3ef",
            "0x0000000000000000000000000000000000000000000000000000000000000000",
            "0x000000000000000000000000bded1de43ec40d9f62c43d94d3caae4b6c03c30a"
          ],
          "data": "0x00000000000000000000000000000000000000000000003635c9adc5dea00000",
          "blockHash": "0xbad07aa36c4bf69ba9ccebc717df2e3534f909d94b12607bbf18d48fd969cf9a",
          "blockNumber": "0x9f622f",
          "blockTimestamp": "0x69b55af8",
          "transactionHash": "0xa4ce55d46fabae2b6b175c63cfc71e1a7464557a2994d0a3da3d58605fb8eb95",
          "transactionIndex": "0x112",
          "logIndex": "0x1d9",
          "removed": false
        },
        {
          "address": "0x35d0186d1fd53b72996475d965c5ed171d52b986",
          "topics": [
            "0xddf252ad1be2c89b69c2b068fc378daa952ba7f163c4a11628f55a4df523b3ef",
            "0x0000000000000000000000000000000000000000000000000000000000000000",
            "0x000000000000000000000000bded1de43ec40d9f62c43d94d3caae4b6c03c30a"
          ],
          "data": "0x00000000000000000000000000000000000000000000003635c9adc5dea00000",
          "blockHash": "0xbad07aa36c4bf69ba9ccebc717df2e3534f909d94b12607bbf18d48fd969cf9a",
          "blockNumber": "0x9f622f",
          "blockTimestamp": "0x69b55af8",
          "transactionHash": "0xa4ce55d46fabae2b6b175c63cfc71e1a7464557a2994d0a3da3d58605fb8eb95",
          "transactionIndex": "0x112",
          "logIndex": "0x1da",
          "removed": false
        },
        {
          "address": "0x35d0186d1fd53b72996475d965c5ed171d52b986",
          "topics": [
            "0xddf252ad1be2c89b69c2b068fc378daa952ba7f163c4a11628f55a4df523b3ef",
            "0x0000000000000000000000000000000000000000000000000000000000000000",
            "0x000000000000000000000000bded1de43ec40d9f62c43d94d3caae4b6c03c30a"
          ],
          "data": "0x00000000000000000000000000000000000000000000003635c9adc5dea00000",
          "blockHash": "0xbad07aa36c4bf69ba9ccebc717df2e3534f909d94b12607bbf18d48fd969cf9a",
          "blockNumber": "0x9f622f",
          "blockTimestamp": "0x69b55af8",
          "transactionHash": "0xa4ce55d46fabae2b6b175c63cfc71e1a7464557a2994d0a3da3d58605fb8eb95",
          "transactionIndex": "0x112",
          "logIndex": "0x1db",
          "removed": false
        },
        {
          "address": "0x35d0186d1fd53b72996475d965c5ed171d52b986",
          "topics": [
            "0xddf252ad1be2c89b69c2b068fc378daa952ba7f163c4a11628f55a4df523b3ef",
            "0x0000000000000000000000000000000000000000000000000000000000000000",
            "0x000000000000000000000000bded1de43ec40d9f62c43d94d3caae4b6c03c30a"
          ],
          "data": "0x00000000000000000000000000000000000000000000003635c9adc5dea00000",
          "blockHash": "0xbad07aa36c4bf69ba9ccebc717df2e3534f909d94b12607bbf18d48fd969cf9a",
          "blockNumber": "0x9f622f",
          "blockTimestamp": "0x69b55af8",
          "transactionHash": "0xa4ce55d46fabae2b6b175c63cfc71e1a7464557a2994d0a3da3d58605fb8eb95",
          "transactionIndex": "0x112",
          "logIndex": "0x1dc",
          "removed": false
        },
        {
          "address": "0x35d0186d1fd53b72996475d965c5ed171d52b986",
          "topics": [
            "0xddf252ad1be2c89b69c2b068fc378daa952ba7f163c4a11628f55a4df523b3ef",
            "0x0000000000000000000000000000000000000000000000000000000000000000",
            "0x000000000000000000000000bded1de43ec40d9f62c43d94d3caae4b6c03c30a"
          ],
          "data": "0x00000000000000000000000000000000000000000000003635c9adc5dea00000",
          "blockHash": "0xbad07aa36c4bf69ba9ccebc717df2e3534f909d94b12607bbf18d48fd969cf9a",
          "blockNumber": "0x9f622f",
          "blockTimestamp": "0x69b55af8",
          "transactionHash": "0xa4ce55d46fabae2b6b175c63cfc71e1a7464557a2994d0a3da3d58605fb8eb95",
          "transactionIndex": "0x112",
          "logIndex": "0x1dd",
          "removed": false
        },
        {
          "address": "0x35d0186d1fd53b72996475d965c5ed171d52b986",
          "topics": [
            "0xddf252ad1be2c89b69c2b068fc378daa952ba7f163c4a11628f55a4df523b3ef",
            "0x0000000000000000000000000000000000000000000000000000000000000000",
            "0x000000000000000000000000bded1de43ec40d9f62c43d94d3caae4b6c03c30a"
          ],
          "data": "0x00000000000000000000000000000000000000000000003635c9adc5dea00000",
          "blockHash": "0xbad07aa36c4bf69ba9ccebc717df2e3534f909d94b12607bbf18d48fd969cf9a",
          "blockNumber": "0x9f622f",
          "blockTimestamp": "0x69b55af8",
          "transactionHash": "0xa4ce55d46fabae2b6b175c63cfc71e1a7464557a2994d0a3da3d58605fb8eb95",
          "transactionIndex": "0x112",
          "logIndex": "0x1de",
          "removed": false
        },
        {
          "address": "0x35d0186d1fd53b72996475d965c5ed171d52b986",
          "topics": [
            "0xddf252ad1be2c89b69c2b068fc378daa952ba7f163c4a11628f55a4df523b3ef",
            "0x0000000000000000000000000000000000000000000000000000000000000000",
            "0x000000000000000000000000bded1de43ec40d9f62c43d94d3caae4b6c03c30a"
          ],
          "data": "0x00000000000000000000000000000000000000000000003635c9adc5dea00000",
          "blockHash": "0xbad07aa36c4bf69ba9ccebc717df2e3534f909d94b12607bbf18d48fd969cf9a",
          "blockNumber": "0x9f622f",
          "blockTimestamp": "0x69b55af8",
          "transactionHash": "0xa4ce55d46fabae2b6b175c63cfc71e1a7464557a2994d0a3da3d58605fb8eb95",
          "transactionIndex": "0x112",
          "logIndex": "0x1df",
          "removed": false
        },
        {
          "address": "0x35d0186d1fd53b72996475d965c5ed171d52b986",
          "topics": [
            "0xddf252ad1be2c89b69c2b068fc378daa952ba7f163c4a11628f55a4df523b3ef",
            "0x0000000000000000000000000000000000000000000000000000000000000000",
            "0x000000000000000000000000bded1de43ec40d9f62c43d94d3caae4b6c03c30a"
          ],
          "data": "0x00000000000000000000000000000000000000000000003635c9adc5dea00000",
          "blockHash": "0xbad07aa36c4bf69ba9ccebc717df2e3534f909d94b12607bbf18d48fd969cf9a",
          "blockNumber": "0x9f622f",
          "blockTimestamp": "0x69b55af8",
          "transactionHash": "0xa4ce55d46fabae2b6b175c63cfc71e1a7464557a2994d0a3da3d58605fb8eb95",
          "transactionIndex": "0x112",
          "logIndex": "0x1e0",
          "removed": false
        },
        {
          "address": "0x35d0186d1fd53b72996475d965c5ed171d52b986",
          "topics": [
            "0xddf252ad1be2c89b69c2b068fc378daa952ba7f163c4a11628f55a4df523b3ef",
            "0x0000000000000000000000000000000000000000000000000000000000000000",
            "0x000000000000000000000000bded1de43ec40d9f62c43d94d3caae4b6c03c30a"
          ],
          "data": "0x00000000000000000000000000000000000000000000003635c9adc5dea00000",
          "blockHash": "0xbad07aa36c4bf69ba9ccebc717df2e3534f909d94b12607bbf18d48fd969cf9a",
          "blockNumber": "0x9f622f",
          "blockTimestamp": "0x69b55af8",
          "transactionHash": "0xa4ce55d46fabae2b6b175c63cfc71e1a7464557a2994d0a3da3d58605fb8eb95",
          "transactionIndex": "0x112",
          "logIndex": "0x1e1",
          "removed": false
        },
        {
          "address": "0x35d0186d1fd53b72996475d965c5ed171d52b986",
          "topics": [
            "0xddf252ad1be2c89b69c2b068fc378daa952ba7f163c4a11628f55a4df523b3ef",
            "0x0000000000000000000000000000000000000000000000000000000000000000",
            "0x000000000000000000000000bded1de43ec40d9f62c43d94d3caae4b6c03c30a"
          ],
          "data": "0x00000000000000000000000000000000000000000000003635c9adc5dea00000",
          "blockHash": "0xbad07aa36c4bf69ba9ccebc717df2e3534f909d94b12607bbf18d48fd969cf9a",
          "blockNumber": "0x9f622f",
          "blockTimestamp": "0x69b55af8",
          "transactionHash": "0xa4ce55d46fabae2b6b175c63cfc71e1a7464557a2994d0a3da3d58605fb8eb95",
          "transactionIndex": "0x112",
          "logIndex": "0x1e2",
          "removed": false
        },
        {
          "address": "0x35d0186d1fd53b72996475d965c5ed171d52b986",
          "topics": [
            "0xddf252ad1be2c89b69c2b068fc378daa952ba7f163c4a11628f55a4df523b3ef",
            "0x0000000000000000000000000000000000000000000000000000000000000000",
            "0x000000000000000000000000bded1de43ec40d9f62c43d94d3caae4b6c03c30a"
          ],
          "data": "0x00000000000000000000000000000000000000000000003635c9adc5dea00000",
          "blockHash": "0xbad07aa36c4bf69ba9ccebc717df2e3534f909d94b12607bbf18d48fd969cf9a",
          "blockNumber": "0x9f622f",
          "blockTimestamp": "0x69b55af8",
          "transactionHash": "0xa4ce55d46fabae2b6b175c63cfc71e1a7464557a2994d0a3da3d58605fb8eb95",
          "transactionIndex": "0x112",
          "logIndex": "0x1e3",
          "removed": false
        },
        {
          "address": "0x35d0186d1fd53b72996475d965c5ed171d52b986",
          "topics": [
            "0xddf252ad1be2c89b69c2b068fc378daa952ba7f163c4a11628f55a4df523b3ef",
            "0x0000000000000000000000000000000000000000000000000000000000000000",
            "0x000000000000000000000000bded1de43ec40d9f62c43d94d3caae4b6c03c30a"
          ],
          "data": "0x00000000000000000000000000000000000000000000003635c9adc5dea00000",
          "blockHash": "0xbad07aa36c4bf69ba9ccebc717df2e3534f909d94b12607bbf18d48fd969cf9a",
          "blockNumber": "0x9f622f",
          "blockTimestamp": "0x69b55af8",
          "transactionHash": "0xa4ce55d46fabae2b6b175c63cfc71e1a7464557a2994d0a3da3d58605fb8eb95",
          "transactionIndex": "0x112",
          "logIndex": "0x1e4",
          "removed": false
        },
        {
          "address": "0x35d0186d1fd53b72996475d965c5ed171d52b986",
          "topics": [
            "0xddf252ad1be2c89b69c2b068fc378daa952ba7f163c4a11628f55a4df523b3ef",
            "0x0000000000000000000000000000000000000000000000000000000000000000",
            "0x000000000000000000000000bded1de43ec40d9f62c43d94d3caae4b6c03c30a"
          ],
          "data": "0x00000000000000000000000000000000000000000000003635c9adc5dea00000",
          "blockHash": "0xbad07aa36c4bf69ba9ccebc717df2e3534f909d94b12607bbf18d48fd969cf9a",
          "blockNumber": "0x9f622f",
          "blockTimestamp": "0x69b55af8",
          "transactionHash": "0xa4ce55d46fabae2b6b175c63cfc71e1a7464557a2994d0a3da3d58605fb8eb95",
          "transactionIndex": "0x112",
          "logIndex": "0x1e5",
          "removed": false
        },
        {
          "address": "0xe03a1074c86cfedd5c142c4f04f1a1536e203543",
          "topics": [
            "0xf208f4912782fd25c7f114ca3723a2d5dd6f3bcc3ac8db5af63baa85f711d5ec",
            "0x8a8c99d1744504b9a22904c97d1ce79bc00c0ff03b5c729aa102277edb6a4851",
            "0x000000000000000000000000bded1de43ec40d9f62c43d94d3caae4b6c03c30a"
          ],
          "data": "0x0000000000000000000000000000000000000000000000000000000000010dc4000000000000000000000000000000000000000000000000000000000001c1c40000000000000000000000000000000000000000000000000de0b6b3a76400000000000000000000000000000000000000000000000000000000000000000000",
          "blockHash": "0xbad07aa36c4bf69ba9ccebc717df2e3534f909d94b12607bbf18d48fd969cf9a",
          "blockNumber": "0x9f622f",
          "blockTimestamp": "0x69b55af8",
          "transactionHash": "0xa4ce55d46fabae2b6b175c63cfc71e1a7464557a2994d0a3da3d58605fb8eb95",
          "transactionIndex": "0x112",
          "logIndex": "0x1e6",
          "removed": false
        },
        {
          "address": "0x35d0186d1fd53b72996475d965c5ed171d52b986",
          "topics": [
            "0xddf252ad1be2c89b69c2b068fc378daa952ba7f163c4a11628f55a4df523b3ef",
            "0x000000000000000000000000bded1de43ec40d9f62c43d94d3caae4b6c03c30a",
            "0x000000000000000000000000e03a1074c86cfedd5c142c4f04f1a1536e203543"
          ],
          "data": "0x000000000000000000000000000000000000000000000003b562a1535d026845",
          "blockHash": "0xbad07aa36c4bf69ba9ccebc717df2e3534f909d94b12607bbf18d48fd969cf9a",
          "blockNumber": "0x9f622f",
          "blockTimestamp": "0x69b55af8",
          "transactionHash": "0xa4ce55d46fabae2b6b175c63cfc71e1a7464557a2994d0a3da3d58605fb8eb95",
          "transactionIndex": "0x112",
          "logIndex": "0x1e7",
          "removed": false
        }
      ],
      "logsBloom": "0x00000000000000000000010000000000000080000000000000000000000000000000000000000000000000000000040000000100000000000000000000000000000400000000000000000008000000000000000002000000000000000000000000000000020000000000000080000800000000000000100000000010000020000000000001000040001010000000000000000000000000000000000000000000000004000000000000000000000000000000000000000000000000000000000000000002000000000008000000000000000000000000000000001000000020001000000000000000000000000000000004000000000000000000000000000000",
      "type": "0x2",
      "transactionHash": "0xa4ce55d46fabae2b6b175c63cfc71e1a7464557a2994d0a3da3d58605fb8eb95",
      "transactionIndex": "0x112",
      "blockHash": "0xbad07aa36c4bf69ba9ccebc717df2e3534f909d94b12607bbf18d48fd969cf9a",
      "blockNumber": "0x9f622f",
      "gasUsed": "0xb4558",
      "effectiveGasPrice": "0xf4249",
      "from": "0xfcc2238319ac360e985f1736abb3df6251daf6f5",
      "to": "0xbded1de43ec40d9f62c43d94d3caae4b6c03c30a",
      "contractAddress": null
    },
    {
      "status": "0x1",
      "cumulativeGasUsed": "0x1e69dd9",
      "logs": [
        {
          "address": "0xfff9976782d46cc05630d1f6ebab18b2324d6b14",
          "topics": [
            "0xe1fffcc4923d04b559f4d29a8bfc6cda04eb5b0d3c460751c2402c5c5cc9109c",
            "0x000000000000000000000000fcc2238319ac360e985f1736abb3df6251daf6f5"
          ],
          "data": "0x00000000000000000000000000000000000000000000000014d1120d7b160000",
          "blockHash": "0xbad07aa36c4bf69ba9ccebc717df2e3534f909d94b12607bbf18d48fd969cf9a",
          "blockNumber": "0x9f622f",
          "blockTimestamp": "0x69b55af8",
          "transactionHash": "0x008d4cce727b73e99f61c6404a01ef8cc141c4625049c944e078643143d03e6a",
          "transactionIndex": "0x113",
          "logIndex": "0x1e8",
          "removed": false
        }
      ],
      "logsBloom": "0x00000000000000000000000000000000000000000080000000000000000000000000000000000000000000000000000000000000000000000000000000000000000000000000000000000000000000000000000000000000000000008000000000000000000000000000000000000000000000000000000000000000000000000040004000000000000000000000000000000001000000000001000000000000000020000000000000000000000000000000000000000000000000000000000000000000000000000002000000000000000000000000000000000000000000000000000000000000000000000000000000000000000000400000000000000000",
      "type": "0x2",
      "transactionHash": "0x008d4cce727b73e99f61c6404a01ef8cc141c4625049c944e078643143d03e6a",
      "transactionIndex": "0x113",
      "blockHash": "0xbad07aa36c4bf69ba9ccebc717df2e3534f909d94b12607bbf18d48fd969cf9a",
      "blockNumber": "0x9f622f",
      "gasUsed": "0xafee",
      "effectiveGasPrice": "0xf4249",
      "from": "0xfcc2238319ac360e985f1736abb3df6251daf6f5",
      "to": "0xfff9976782d46cc05630d1f6ebab18b2324d6b14",
      "contractAddress": null
    },
    {
      "status": "0x1",
      "cumulativeGasUsed": "0x1e754a3",
      "logs": [
        {
          "address": "0xfff9976782d46cc05630d1f6ebab18b2324d6b14",
          "topics": [
            "0xddf252ad1be2c89b69c2b068fc378daa952ba7f163c4a11628f55a4df523b3ef",
            "0x000000000000000000000000fcc2238319ac360e985f1736abb3df6251daf6f5",
            "0x000000000000000000000000bded1de43ec40d9f62c43d94d3caae4b6c03c30a"
          ],
          "data": "0x00000000000000000000000000000000000000000000000014d1120d7b160000",
          "blockHash": "0xbad07aa36c4bf69ba9ccebc717df2e3534f909d94b12607bbf18d48fd969cf9a",
          "blockNumber": "0x9f622f",
          "blockTimestamp": "0x69b55af8",
          "transactionHash": "0xc71f1fa0aacd051fffc07dad6db21c565f9bf1c8b199f19fa54804d6077a149f",
          "transactionIndex": "0x114",
          "logIndex": "0x1e9",
          "removed": false
        }
      ],
      "logsBloom": "0x00000000000000000000000000000000000080000080000000000000000000000000000000000000000000000000000000000000000000000000000000000000000000000000000000000008000000000000000000000000000000000000000000000000000000000000000000000000000000000000000000000010000020000040004000000000001000000000000000000000000000000001000000000000000020000000000000000000000000000000000000000000000000000000000000000002000000000002000000000000000000000000000000000000000000000000000000000000000000000000000000000000000000000000000000000000",
      "type": "0x2",
      "transactionHash": "0xc71f1fa0aacd051fffc07dad6db21c565f9bf1c8b199f19fa54804d6077a149f",
      "transactionIndex": "0x114",
      "blockHash": "0xbad07aa36c4bf69ba9ccebc717df2e3534f909d94b12607bbf18d48fd969cf9a",
      "blockNumber": "0x9f622f",
      "gasUsed": "0xb6ca",
      "effectiveGasPrice": "0xf4249",
      "from": "0xfcc2238319ac360e985f1736abb3df6251daf6f5",
      "to": "0xfff9976782d46cc05630d1f6ebab18b2324d6b14",
      "contractAddress": null
    },
    {
      "status": "0x1",
      "cumulativeGasUsed": "0x1e82024",
      "logs": [
        {
          "address": "0x47e16bd8702bcef388085c0371ba0b87fa883f5e",
          "topics": [
            "0xddf252ad1be2c89b69c2b068fc378daa952ba7f163c4a11628f55a4df523b3ef",
            "0x000000000000000000000000fcc2238319ac360e985f1736abb3df6251daf6f5",
            "0x000000000000000000000000bded1de43ec40d9f62c43d94d3caae4b6c03c30a"
          ],
          "data": "0x00000000000000000000000000000000000000000000000000000000b2d05e00",
          "blockHash": "0xbad07aa36c4bf69ba9ccebc717df2e3534f909d94b12607bbf18d48fd969cf9a",
          "blockNumber": "0x9f622f",
          "blockTimestamp": "0x69b55af8",
          "transactionHash": "0x6b60c075eaac362f9aee4aa990a2df2e0053facab6daada67950d47da6beec8e",
          "transactionIndex": "0x115",
          "logIndex": "0x1ea",
          "removed": false
        }
      ],
      "logsBloom": "0x00000000000000010000000000000000000080000080000000000000000000000000000000000000000000000000000000000000000000000000000000000000000000000000000000000008000000000000000000000000000000000000000000000000000000000000000000000000000000000000000000000010000020000000004000000000001000000000000000000000000000000001000000000000000000000000000000000000000000000000000010000000000000000000000000000002000000000000000000000000008000000000000000000000000000000000000000000000000000000000000000000000000000000000000000000000",
      "type": "0x2",
      "transactionHash": "0x6b60c075eaac362f9aee4aa990a2df2e0053facab6daada67950d47da6beec8e",
      "transactionIndex": "0x115",
      "blockHash": "0xbad07aa36c4bf69ba9ccebc717df2e3534f909d94b12607bbf18d48fd969cf9a",
      "blockNumber": "0x9f622f",
      "gasUsed": "0xcb81",
      "effectiveGasPrice": "0xf4249",
      "from": "0xfcc2238319ac360e985f1736abb3df6251daf6f5",
      "to": "0x47e16bd8702bcef388085c0371ba0b87fa883f5e",
      "contractAddress": null
    },
    {
      "status": "0x1",
      "cumulativeGasUsed": "0x1ecc6d7",
      "logs": [
        {
          "address": "0xe03a1074c86cfedd5c142c4f04f1a1536e203543",
          "topics": [
            "0xdd466e674ea557f56295e2d0218a125ea4b4f0f6f3307b95f85e6110838d6438",
            "0x917a87240a4708a6a510fe4b840be769e93f4cf3439b00bcb57fbb80d758a1de",
            "0x00000000000000000000000047e16bd8702bcef388085c0371ba0b87fa883f5e",
            "0x000000000000000000000000fff9976782d46cc05630d1f6ebab18b2324d6b14"
          ],
          "data": "0x0000000000000000000000000000000000000000000000000000000000000bb8000000000000000000000000000000000000000000000000000000000000003c0000000000000000000000000000000000000000000000000000000000000000000000000000000000000000000000000000553e0000000000000000000927c00000000000000000000000000000000000000000000000000000000000030c8f",
          "blockHash": "0xbad07aa36c4bf69ba9ccebc717df2e3534f909d94b12607bbf18d48fd969cf9a",
          "blockNumber": "0x9f622f",
          "blockTimestamp": "0x69b55af8",
          "transactionHash": "0x721e803b118600031e22f198ba3a4be43a37802193c766cb684ad95263aaccac",
          "transactionIndex": "0x116",
          "logIndex": "0x1eb",
          "removed": false
        },
        {
          "address": "0xe03a1074c86cfedd5c142c4f04f1a1536e203543",
          "topics": [
            "0xf208f4912782fd25c7f114ca3723a2d5dd6f3bcc3ac8db5af63baa85f711d5ec",
            "0x917a87240a4708a6a510fe4b840be769e93f4cf3439b00bcb57fbb80d758a1de",
            "0x000000000000000000000000bded1de43ec40d9f62c43d94d3caae4b6c03c30a"
          ],
          "data": "0x000000000000000000000000000000000000000000000000000000000002974800000000000000000000000000000000000000000000000000000000000381a800000000000000000000000000000000000000000000000000003691d6afc0000000000000000000000000000000000000000000000000000000000000000000",
          "blockHash": "0xbad07aa36c4bf69ba9ccebc717df2e3534f909d94b12607bbf18d48fd969cf9a",
          "blockNumber": "0x9f622f",
          "blockTimestamp": "0x69b55af8",
          "transactionHash": "0x721e803b118600031e22f198ba3a4be43a37802193c766cb684ad95263aaccac",
          "transactionIndex": "0x116",
          "logIndex": "0x1ec",
          "removed": false
        },
        {
          "address": "0x47e16bd8702bcef388085c0371ba0b87fa883f5e",
          "topics": [
            "0xddf252ad1be2c89b69c2b068fc378daa952ba7f163c4a11628f55a4df523b3ef",
            "0x000000000000000000000000bded1de43ec40d9f62c43d94d3caae4b6c03c30a",
            "0x000000000000000000000000e03a1074c86cfedd5c142c4f04f1a1536e203543"
          ],
          "data": "0x000000000000000000000000000000000000000000000000000000007f455bbb",
          "blockHash": "0xbad07aa36c4bf69ba9ccebc717df2e3534f909d94b12607bbf18d48fd969cf9a",
          "blockNumber": "0x9f622f",
          "blockTimestamp": "0x69b55af8",
          "transactionHash": "0x721e803b118600031e22f198ba3a4be43a37802193c766cb684ad95263aaccac",
          "transactionIndex": "0x116",
          "logIndex": "0x1ed",
          "removed": false
        },
        {
          "address": "0xfff9976782d46cc05630d1f6ebab18b2324d6b14",
          "topics": [
            "0xddf252ad1be2c89b69c2b068fc378daa952ba7f163c4a11628f55a4df523b3ef",
            "0x000000000000000000000000bded1de43ec40d9f62c43d94d3caae4b6c03c30a",
            "0x000000000000000000000000e03a1074c86cfedd5c142c4f04f1a1536e203543"
          ],
          "data": "0x0000000000000000000000000000000000000000000000000e1edb860ee5e6fc",
          "blockHash": "0xbad07aa36c4bf69ba9ccebc717df2e3534f909d94b12607bbf18d48fd969cf9a",
          "blockNumber": "0x9f622f",
          "blockTimestamp": "0x69b55af8",
          "transactionHash": "0x721e803b118600031e22f198ba3a4be43a37802193c766cb684ad95263aaccac",
          "transactionIndex": "0x116",
          "logIndex": "0x1ee",
          "removed": false
        }
      ],
      "logsBloom": "0x00600000001000011000000000000000000080000000000000000000000000000000000000000000000000000000000000000900000000000000000000000000000000000000000000000008000000000000000000000000000000000000000000000000000000000000000080000000000000000000100000000010000020000040000001000008001010000000000000000001000000000000000000200000000024000000000100000008000000000000000010000000000000000000000000000002000000000002000001000000008000000000000000001000000000001000000000000000200000000000000004000000000000000000000000000000",
      "type": "0x2",
      "transactionHash": "0x721e803b118600031e22f198ba3a4be43a37802193c766cb684ad95263aaccac",
      "transactionIndex": "0x116",
      "blockHash": "0xbad07aa36c4bf69ba9ccebc717df2e3534f909d94b12607bbf18d48fd969cf9a",
      "blockNumber": "0x9f622f",
      "gasUsed": "0x4a6b3",
      "effectiveGasPrice": "0xf4249",
      "from": "0xfcc2238319ac360e985f1736abb3df6251daf6f5",
      "to": "0xbded1de43ec40d9f62c43d94d3caae4b6c03c30a",
      "contractAddress": null
    },
    {
      "status": "0x1",
      "cumulativeGasUsed": "0x1ed3bd6",
      "logs": [],
      "logsBloom": "0x00000000000000000000000000000000000000000000000000000000000000000000000000000000000000000000000000000000000000000000000000000000000000000000000000000000000000000000000000000000000000000000000000000000000000000000000000000000000000000000000000000000000000000000000000000000000000000000000000000000000000000000000000000000000000000000000000000000000000000000000000000000000000000000000000000000000000000000000000000000000000000000000000000000000000000000000000000000000000000000000000000000000000000000000000000000",
      "type": "0x2",
      "transactionHash": "0x0d80d97abadf895e90719028db2d47cb7a504b3799466042487fbaa6173c9dc8",
      "transactionIndex": "0x117",
      "blockHash": "0xbad07aa36c4bf69ba9ccebc717df2e3534f909d94b12607bbf18d48fd969cf9a",
      "blockNumber": "0x9f622f",
      "gasUsed": "0x74ff",
      "effectiveGasPrice": "0xf4249",
      "from": "0xfcc2238319ac360e985f1736abb3df6251daf6f5",
      "to": "0xbded1de43ec40d9f62c43d94d3caae4b6c03c30a",
      "contractAddress": null
    },
    {
      "status": "0x1",
      "cumulativeGasUsed": "0x1edcb0a",
      "logs": [
        {
          "address": "0x35d0186d1fd53b72996475d965c5ed171d52b986",
          "topics": [
            "0xddf252ad1be2c89b69c2b068fc378daa952ba7f163c4a11628f55a4df523b3ef",
            "0x000000000000000000000000bded1de43ec40d9f62c43d94d3caae4b6c03c30a",
            "0x000000000000000000000000fcc2238319ac360e985f1736abb3df6251daf6f5"
          ],
          "data": "0x0000000000000000000000000000000000000000000015294d653ff7997d97bb",
          "blockHash": "0xbad07aa36c4bf69ba9ccebc717df2e3534f909d94b12607bbf18d48fd969cf9a",
          "blockNumber": "0x9f622f",
          "blockTimestamp": "0x69b55af8",
          "transactionHash": "0x404912b7c7aafe85f94f2b794c24fcb09baf0f839b13346019d8ecfc8d84179c",
          "transactionIndex": "0x118",
          "logIndex": "0x1ef",
          "removed": false
        }
      ],
      "logsBloom": "0x00000000000000000000000000000000000080000080000000000000000000000000000000000000000000000000000000000000000000000000000000000000000400000000000000000008000000000000000002000000000000000000000000000000000000000000000000000000000000000000000000000010000020000000004000000040001000000000000000000000000000000001000000000000000000000000000000000000000000000000000000000000000000000000000000000002000000000000000000000000000000000000000000000000000000000000000000000000000000000000000000000000000000000000000000000000",
      "type": "0x2",
      "transactionHash": "0x404912b7c7aafe85f94f2b794c24fcb09baf0f839b13346019d8ecfc8d84179c",
      "transactionIndex": "0x118",
      "blockHash": "0xbad07aa36c4bf69ba9ccebc717df2e3534f909d94b12607bbf18d48fd969cf9a",
      "blockNumber": "0x9f622f",
      "gasUsed": "0x8f34",
      "effectiveGasPrice": "0xf4249",
      "from": "0xfcc2238319ac360e985f1736abb3df6251daf6f5",
      "to": "0xbded1de43ec40d9f62c43d94d3caae4b6c03c30a",
      "contractAddress": null
    },
    {
      "status": "0x1",
      "cumulativeGasUsed": "0x1ee9cc7",
      "logs": [
        {
          "address": "0xfff9976782d46cc05630d1f6ebab18b2324d6b14",
          "topics": [
            "0xddf252ad1be2c89b69c2b068fc378daa952ba7f163c4a11628f55a4df523b3ef",
            "0x000000000000000000000000bded1de43ec40d9f62c43d94d3caae4b6c03c30a",
            "0x000000000000000000000000fcc2238319ac360e985f1736abb3df6251daf6f5"
          ],
          "data": "0x00000000000000000000000000000000000000000000000006b236876c301904",
          "blockHash": "0xbad07aa36c4bf69ba9ccebc717df2e3534f909d94b12607bbf18d48fd969cf9a",
          "blockNumber": "0x9f622f",
          "blockTimestamp": "0x69b55af8",
          "transactionHash": "0x95511bd50fa94d751c736fea0635fc463fc5788f83ae6c658448ecb71cafb9b4",
          "transactionIndex": "0x119",
          "logIndex": "0x1f0",
          "removed": false
        }
      ],
      "logsBloom": "0x00000000000000000000000000000000000080000080000000000000000000000000000000000000000000000000000000000000000000000000000000000000000000000000000000000008000000000000000000000000000000000000000000000000000000000000000000000000000000000000000000000010000020000040004000000000001000000000000000000000000000000001000000000000000020000000000000000000000000000000000000000000000000000000000000000002000000000002000000000000000000000000000000000000000000000000000000000000000000000000000000000000000000000000000000000000",
      "type": "0x2",
      "transactionHash": "0x95511bd50fa94d751c736fea0635fc463fc5788f83ae6c658448ecb71cafb9b4",
      "transactionIndex": "0x119",
      "blockHash": "0xbad07aa36c4bf69ba9ccebc717df2e3534f909d94b12607bbf18d48fd969cf9a",
      "blockNumber": "0x9f622f",
      "gasUsed": "0xd1bd",
      "effectiveGasPrice": "0xf4249",
      "from": "0xfcc2238319ac360e985f1736abb3df6251daf6f5",
      "to": "0xbded1de43ec40d9f62c43d94d3caae4b6c03c30a",
      "contractAddress": null
    },
    {
      "status": "0x1",
      "cumulativeGasUsed": "0x1ef2f52",
      "logs": [
        {
          "address": "0x47e16bd8702bcef388085c0371ba0b87fa883f5e",
          "topics": [
            "0xddf252ad1be2c89b69c2b068fc378daa952ba7f163c4a11628f55a4df523b3ef",
            "0x000000000000000000000000bded1de43ec40d9f62c43d94d3caae4b6c03c30a",
            "0x000000000000000000000000fcc2238319ac360e985f1736abb3df6251daf6f5"
          ],
          "data": "0x00000000000000000000000000000000000000000000000000000000338b0245",
          "blockHash": "0xbad07aa36c4bf69ba9ccebc717df2e3534f909d94b12607bbf18d48fd969cf9a",
          "blockNumber": "0x9f622f",
          "blockTimestamp": "0x69b55af8",
          "transactionHash": "0xcc2dff26dc1a87c470edb9c8137c17fbf4013cf0eb0a90ea3231b20a0dc7222f",
          "transactionIndex": "0x11a",
          "logIndex": "0x1f1",
          "removed": false
        }
      ],
      "logsBloom": "0x00000000000000010000000000000000000080000080000000000000000000000000000000000000000000000000000000000000000000000000000000000000000000000000000000000008000000000000000000000000000000000000000000000000000000000000000000000000000000000000000000000010000020000000004000000000001000000000000000000000000000000001000000000000000000000000000000000000000000000000000010000000000000000000000000000002000000000000000000000000008000000000000000000000000000000000000000000000000000000000000000000000000000000000000000000000",
      "type": "0x2",
      "transactionHash": "0xcc2dff26dc1a87c470edb9c8137c17fbf4013cf0eb0a90ea3231b20a0dc7222f",
      "transactionIndex": "0x11a",
      "blockHash": "0xbad07aa36c4bf69ba9ccebc717df2e3534f909d94b12607bbf18d48fd969cf9a",
      "blockNumber": "0x9f622f",
      "gasUsed": "0x928b",
      "effectiveGasPrice": "0xf4249",
      "from": "0xfcc2238319ac360e985f1736abb3df6251daf6f5",
      "to": "0xbded1de43ec40d9f62c43d94d3caae4b6c03c30a",
      "contractAddress": null
    }
  ],
  "libraries": [],
  "pending": [],
  "returns": {},
  "timestamp": 1773492986048,
  "chain": 11155111,
  "commit": "6c12f51"
}